:020000040800F2
:10000000E851022475040008ABF10008BDC10008E6
:10001000F1F00008BB0F0008AD6F01080000000000
:10002000000000000000000000000000B503000810
:10003000D93100080000000011040008991F0108D0
:100040009304000893040008930400089304000834
:100050009304000893040008930400089304000824
:10006000930400089304000893040008A9290008D9
:10007000B9290008C9290008D9290008E929000878
:100080009304000893040008930400083D35000819
:100090005D3500084D3500086D35000893040008F3
:1000A00093040008930400089304000893040008D4
:1000B00095210108930400089304000893040008A4
:1000C00093040008930400089304000893040008B4
:1000D00075180108A1430108A9440108B1450108A8
:1000E000930400089304000800000000A521010803
:1000F000930400089304000893040008F9290008F9
:100100009304000893040008930400089304000873
:1001100093040008213601089304000893040008A2
:10012000092A0008930400089304000893040008B7
:10013000192A000893040008930400089304000897
:1001400000000000000000000000000000000000AF
:100150009304000893040008930400089304000823
:100160009304000893040008930400089304000813
:10017000930400088DF700089304000800000000B5
:1001800093040008930400089304000893040008F3
:1001900093040008930400089304000893040008E3
:1001A0009304000893040008930400080000000072
:1001B00093040008930400089304000893040008C3
:1001C00093040008930400080000000000000000F1
:1001D0000000000000000000930400080000000080
:1001E000000000000000000000000000000000000F
:1001F00000000000000000009304000893040008C1
:100200009304000893040008000000009304000811
:100210009304000893040008930400089304000862
:100220009304000800000000930400080000000090
:1002300093040008930400080000000093040008E1
:100240009304000893040008930400089304000832
:100250009304000893040008930400089304000822
:100260009304000893040008930400089304000812
:1002700093040008930400089304000800000000A1
:1002800093040008930400089304000893040008F2
:100290000000000093040008930400080000000020
:1002A0000000000093040008930400089304000871
:1002B0009304000893040008930400087D350008A7
:1002C0008D350008930400089304000800F002F83C
:1002D00000F060F80AA090E8000C82448344AAF180
:1002E0000107DA4501D100F055F8AFF2090EBAE87E
:1002F0000F0013F0010F18BFFB1A43F0010318475A
:1003000020B60F0040B60F000A444FF0000C10F862
:10031000013B13F0070408BF10F8014B1D1108BF83
:1003200010F8015B641E05D010F8016B641E01F823
:10033000016BF9D113F0080F1EBF10F8014BAD1C73
:100340000C1B09D16D1E58BF01F801CBFAD505E091
:1003500014F8016B01F8016B6D1EF9D59142D6D3EB
:10036000704700000023002400250026103A28BF13
:1003700078C1FBD8520728BF30C148BF0B60704717
:100380001FB519F0ACFF9DE8030000F043FA1FBD54
:1003900010B510BD00F0AAFA1146FFF7F1FF18F0F2
:1003A000EDFC00F0C8FA03B4FFF7F2FF03BC00F065
:1003B000F9FA00002C4B19680868B0E8F04F80F398
:1003C0000988BFF36F8F4FF0000080F311887047EA
:1003D0000000000008480068006880F308884FF0BB
:1003E000000080F3148862B661B6BFF34F8FBFF38D
:1003F0006F8F00DF00BF00BF08ED00E0DFF80C00EA
:10040000016841F470010160704700BF88ED00E0B1
:10041000EFF30980BFF36F8F134B1A681EF0100FB4
:1004200008BF20ED108A20E9F04F106009B44FF0AA
:10043000500080F31188BFF34F8FBFF36F8F19F017
:1004400035FB4FF0000080F3118809BC196808687B
:10045000B0E8F04F1EF0100F08BFB0EC108A80F328
:100460000988BFF36F8F7047D0000024EFF3058039
:10047000704700000A4880470A4880470A480047FA
:10048000FEE7FEE7FEE7FEE7FEE7FEE7FEE7FEE744
:10049000FEE7FEE705480649064A074B704700009D
:1004A0001935000889200108CD020008E8F101246F
:1004B000E8510224E8210224E821022470B506460E
:1004C00000F08CF9056806F10B0020F00704B44237
:1004D0009CBF002070BD2B466A68BAB11068A0426C
:1004E00010D304F1080188423CBF5068586007D31C
:1004F0005168101941601168091B0160586014604F
:10050000101D70BD13465268002AE7D121462846C7
:1005100000F06CF90028DED170BD70B50446051FEF
:1005200000F05CF90068002C14BF446870BD002C1A
:1005300018BFAC423CBF20466468F8D301680A1873
:10054000AA4218BF456003D12A68054611440160DC
:1005500028684119A1421CBF6C6070BD6168696068
:1005600021680844286070BD53EA020C00F06980DD
:100570002DE9F04B4FF00006002B1FBFB3FA83F5B7
:1005800003FA05F424FA05F65E4012BF1643B2FAE8
:1005900082F502FA05F4C5F120051EBF22FA05FC1A
:1005A00044EA0C04203556EA044C4FEA144418BFC0
:1005B000641C4FF000084FF00009904271EB030CEF
:1005C00039D3002919BFB1FA81F701FA07F6B0FA59
:1005D00080F700FA07F6C7F120071EBF20FA07FCD4
:1005E00046EA0C062037B6FBF4FCA7EB0507103FE4
:1005F00007F01F0BCBF120060CFA0BFB2CFA06F6CA
:1006000044BFB3460026202FA4BF5E464FF0000B28
:100610005BEA060C08BF4FF0010B19EB0B09ABFBB3
:10062000027C48EB0608C01B06FB02CC0BFB03CC8C
:1006300071EB0C01C1E70B46024641464846BDE856
:10064000F08B13B54FF000004FF00001AFF30080C6
:10065000BDE81C407047032A40F2308010F0030CC4
:1006600000F0158011F8013BBCF1020F624498BF05
:1006700011F801CB00F8013B38BF11F8013BA2F1A2
:10068000040298BF00F801CB38BF00F8013B11F01D
:10069000030300F02580083AC0F0088051F8043BBD
:1006A000083A51F804CBA0E80810F5E7121D5CBF2A
:1006B00051F8043B40F8043BAFF30080D20724BF5D
:1006C00011F8013B11F801CB48BF11F8012B24BFF1
:1006D00000F8013B00F801CB48BF00F8012B704740
:1006E00010B5203AC0F00B80B1E81850203AA0E8CD
:1006F0001850B1E81850A0E81850BFF4F5AF5FEA01
:10070000027C24BFB1E81850A0E8185044BF18C9B3
:1007100018C0BDE810405FEA827C24BF51F8043B5A
:1007200040F8043B08BF7047D20728BF31F8023BAE
:1007300048BF11F8012B28BF20F8023B48BF00F842
:10074000012B70474FF000020429C0F0128010F016
:10075000030C00F01B80CCF1040CBCF1020F18BF9D
:1007600000F8012BA8BF20F8022BA1EB0C0100F030
:100770000DB85FEAC17C24BF00F8012B00F8012B03
:1007800048BF00F8012B70474FF0000200B5134638
:1007900094469646203922BFA0E80C50A0E80C50A1
:1007A000B1F12001BFF4F7AF090728BFA0E80C5052
:1007B00048BF0CC05DF804EB890028BF40F8042B4B
:1007C00008BF704748BF20F8022B11F0804F18BFB8
:1007D00000F8012B7047704770477047004870471A
:1007E00090F10124704770477047704738B5044650
:1007F0000A4600206946AFF30080002808BF38BDD4
:1008000002460099204600F04FF8012038BD012033
:1008100000F064B8F8B5AFF30080054600200C4640
:10082000102000BF0646A819A0420DD932466946DD
:100830000020AFF30080070008BF00F04FF80098D9
:10084000A04218BF0546C419FFF7C8FF0560074658
:10085000F01D20F007004619284600F00AF8B442BF
:1008600008BFF8BDA21B31463868BDE8F84000F06B
:100870001BB800210160C0E90110704710207047CB
:1008800010B500F00DF8006810BD10B5044600F07A
:1008900007F8046010BD00000048704788F101248B
:1008A0000048704788F10124034640688C460028C0
:1008B00018BF88423CBF03464068F8D31868184404
:1008C000884207D00CF1030020F00700001D411AF8
:1008D000521A0146081D0A60FFF71FBE10B500F04E
:1008E00039F8BDE8104000F02FB870477546FFF7A3
:1008F000D3FFAE4605006946534620F00700854603
:1009000018B020B5FFF7C6FDBDE820404FF0000647
:100910004FF000074FF000084FF0000B21F00701E7
:10092000AC46ACE8C009ACE8C009ACE8C009ACE82A
:10093000C0098D46704710B50446AFF300802046CD
:10094000BDE81040FFF72FBD002801D000F02AB805
:100950007047000010B5012805D0002103A000F069
:1009600027F8012010BD09A1F8E7000053494752BC
:10097000544D454D3A204F7574206F66206865616F
:1009800070206D656D6F7279000000003A20486537
:100990006170206D656D6F727920636F7272757012
:1009A0007465640001491820ABBEFEE72600020012
:1009B00070B505460C460A2000E06D1C00F011F8E9
:1009C00035B128780028F8D102E0641C00F009F85D
:1009D00014B120780028F8D1BDE870400A20AFF3A8
:1009E000008008B569468DF800000320ABBE08BD45
:1009F00070B505460C4600260DB1022C00D870BD1E
:100A0000A11E06480288284602F088FF0646A01E5E
:100A10002E54310A601E295400BFF0E74C06002412
:100A200010B501221146024806F010F910BD000071
:100A30000008025810B500220121024806F006F90C
:100A400010BD00000008025810B50122082102481C
:100A500006F0FCF810BD00000008025810B5002296
:100A60000821024806F0F2F810BD00000008025804
:100A700010B50446FFF7DEFF922000F0A5F906222C
:100A80009549122000F080F9FFF7CAFF924840789C
:100A9000000200B29049097808439049088008464E
:100AA000B0F9000000EE100AB8EEC00A8C48D0ED94
:100AB000000A20EE200AD4ED080A20EE200A84ED78
:100AC000000A8548C078000200B28349897808434B
:100AD000824908800846B0F9000000EE100AB8EE1E
:100AE000C00A7F48D0ED000A20EE200AD4ED080AA3
:100AF00020EE200A84ED010A77484079000200B216
:100B0000754909790843754908800846B0F900001D
:100B100000EE100AB8EEC00A7148D0ED000A20EECF
:100B2000200AD4ED080A20EE200A84ED020AFFF71D
:100B300095FF08226849002000F026F9FFF784FF9E
:100B4000654800780F284FD166480078F0B36248B6
:100B5000C078000200B26049897808435F49088084
:100B600094ED090A0846B0F9000000EE900AF8EE8C
:100B7000E00A5D4890ED001A10EE810A84ED030A48
:100B800055484079000200B2534909790843534956
:100B9000088094ED0A0A0846B0F9000000EE900AB9
:100BA000F8EEE00A504890ED001A10EE810A84ED4C
:100BB000040A4948C079000200B2474989790843CC
:100BC0004649088094ED0B0A084600E00DE0B0F9B4
:100BD000000000EE900AF8EEE00A434890ED001A9B
:100BE00010EE810A84ED050A44E03B48C07800021B
:100BF00000B2394989780843384908800846B0F975
:100C0000000000EE100AB8EEC00A3748D0ED000A26
:100C100020EE200A84ED030A2F484079000200B23A
:100C20002D49097908432D4908800846B0F900008C
:100C300000EE100AB8EEC00A2B48D0ED000A20EEF4
:100C4000200A84ED040A2448C079000200B2224937
:100C500089790843214908800846B0F9000000EE70
:100C6000100AB8EEC00A2048D0ED000A20EE200A93
:100C700084ED050AFFF7DEFEA22000F0A5F80222AF
:100C80001549222000F080F8FFF7CAFE12480078CC
:100C9000C0001149497840EA6110104908800846AF
:100CA000B0F90000B0F5806F05DB08460088A0F5BC
:100CB000006000B208800948B0F9000000EE100A98
:100CC000F8EEC00AB4EE001AB3EE070A00EE810A8D
:100CD00084ED070A10BD0000E2060024EA060024A5
:100CE000A4060024B4060024A806002470B5044617
:100CF0000D461C48046000201B49087017F054FB87
:100D00001949097808431849087017F003FC164977
:100D100009780843144908701DB1144800F084FA9A
:100D20001CE09FED130A114880ED090A9FED110A9E
:100D300080ED0A0A9FED100A80ED0B0A9FED0F0A65
:100D400080ED0C0A90ED0C0ADFED0D0A80EE801AA2
:100D500080ED081A9FED0B0A80ED060A0248007824
:100D600070BD0000EC060024AE0600240CF0012447
:100D7000833A073BA6FFC6BA30FF7BB804F81D4193
:100D800011C71C410000204270B506460C461546AE
:100D900046F0800000F018F806E0552000F014F846
:100DA0002070641C681EC5B2002DF6D170BD70B5F0
:100DB00004460D4644F0800000F006F8552000F08F
:100DC00003F8287070BD000001B582B04FF47A704E
:100DD000012301AA02A900900348006809F03CFA27
:100DE0009DF804000EBD0000EC06002470B5054619
:100DF0000C462846FFF7E8FF2046FFF7E5FF70BDE9
:100E000010B5042106480AF091F8322105480FF088
:100E10002DFA0422044903480FF0FAF910BD00002E
:100E20007C0D0024FCCD012410CE012470B50546B4
:100E30000E46002405E005EB840107480FF0EBF9AE
:100E4000641CB442F7DB0023022219460348006801
:100E500018F0B6FF70BD0000FCCD01243000002466
:100E6000D2ED020A92ED021AB6EE000A00EEC10AB5
:100E7000D2ED030A92ED031A00EEC10AD0ED000A8A
:100E800020EE200AD2ED010A92ED021A60EE810AEC
:100E900092ED001AD2ED031A41EE610A90ED011AAB
:100EA00000EE810AD2ED010A92ED031A60EE810A8A
:100EB00092ED001AD2ED021A41EE210A90ED021ACB
:100EC00000EE810AF0EE000A20EE200A81ED000A11
:100ED00092ED010AD2ED020A20EE200AD2ED000ABC
:100EE00092ED031A00EE810AD0ED000A60EE200AAE
:100EF00092ED011AD2ED011AB6EE000A01EE610A76
:100F0000D2ED031A92ED032AB0EE401A01EEC21A96
:100F1000D0ED011AB0EE600A01EE210AD2ED020A0C
:100F200092ED031A60EE810A92ED001AD2ED011AD9
:100F300041EE610A90ED021A00EE810AF0EE000A1D
:100F400020EE200A81ED010A92ED010AD2ED030A9A
:100F500020EE200AD2ED000A92ED021A00EEC10A3C
:100F6000D0ED000A20EE200AD2ED020A92ED031A1B
:100F700060EE810A92ED001AD2ED011A41EE210ACB
:100F800090ED011A00EE810A92ED011AD2ED011ADC
:100F9000F6EE000A41EE610A92ED021AD2ED021A53
:100FA00041EE610A90ED021A00EE810AF0EE000AAD
:100FB00020EE200A81ED020A704700BFFEE700BF65
:100FC00000BF00BF704700BF00BF00BF70470000F8
:100FD000F8B505460C462868A0F2411020B1C0289B
:100FE00035D0C1284CD119E0214627480DF079FBB6
:100FF0000C2002F0D3F92078882805D1012023495C
:1010000008700020224908702078802805D101202E
:101010001F49087000201D49087032E0A07940B2D5
:1010200000906079267940EA062003B2E078A6783D
:1010300040EA062002B26078267840EA062001B233
:1010400014480EF0ABF80A2002F0A8F919E0A079D4
:1010500040B200906079267940EA062003B2E07839
:10106000A67840EA062002B26078267840EA062098
:1010700001B209480EF092F80B2002F08FF900E05F
:1010800000BF00BFF8BD0000F8BE0124E802002444
:10109000E9020024F8C8012400CA012400B589B07F
:1010A0000020019002900220039001200490002073
:1010B0000590069001A9264804F031FE0020034661
:1010C000022211460090224804F07DFE00220121F8
:1010D0001F4804F051FD012211461D4804F0E9FDAE
:1010E0001B4805F096FC01A91A4804F018FE0020E0
:1010F0000346022211460090164804F064FE0122C5
:101100001146144804F0D5FD00220121114804F0D5
:1011100033FD104805F07DFC01A90F4804F0FFFDE8
:10112000002003460222114600900B4804F04BFEBB
:1011300001221146084804F0BCFD002201210648A6
:1011400004F01AFD044805F064FC09B000BD00007D
:101150008C0900242C0A0024CC0A00240346042B0A
:1011600015D007DC7BB1012B0ED0022B0DD0032B49
:1011700012D10BE0202B0BD0212B0AD0222B09D02F
:10118000232B09D107E008E007E006E005E004E0D2
:1011900003E002E001E000E000BF00BF0020704774
:1011A0000020704710B500220449054813F0A3FC45
:1011B0000449034813F090FC002010BD10200024C7
:1011C000341300241018002470B504460D4621463F
:1011D000034813F081FC024813F04AFC002070BD64
:1011E0003413002410B503460C460021084610BDF8
:1011F0002DE9F04104460D4600260A48D0F8BC729D
:10120000D7F8140210B10120BDE8F0812A4621462A
:10121000044813F070FC034813F020FD06463046E6
:10122000F2E700003413002470B52DED048B88B074
:10123000044600200690079001F008FFFE4880ED6C
:10124000000A00BF01F002FFFB48D0ED000A30EEBB
:10125000600AF2EE040AB4EEE00AF1EE10FA14DDD0
:101260009FEDF60A84ED090A9FEDF50A84ED0A0A5E
:101270009FEDF40A84ED0B0A9FEDF30A84ED0C0A4E
:101280009FEDF20A84ED060A5FE29FEDF10A01F09C
:1012900099FE9FEDF00A84ED0C0A9FEDEE0A84EDB5
:1012A000090A9FEDEC0A84ED0A0A9FEDEA0A84ED33
:1012B0000B0A002673E1FFF7BDFB9220FFF784FDC8
:1012C000062206A91220FFF75FFDFFF7A9FB9DF894
:1012D0001900000200B29DF8181040EA010500EE66
:1012E000105AB8EEC00ADC48D0ED000A20EE200A01
:1012F00084ED000A9DF81B00000200B29DF81A1050
:1013000040EA010500EE105AB8EEC00AD248D0ED0E
:10131000000A20EE200A84ED010A9DF81D0000025B
:1013200000B29DF81C1040EA010500EE105AB8EE1C
:10133000C00AC948D0ED000A20EE200A84ED020A56
:10134000D4ED000A60EEA00A94ED011AD4ED011A62
:1013500041EE210A94ED021AD4ED021A41EE210A5F
:10136000B0EE600A16F057FCB0EE408A94ED0C0A1D
:1013700030EE080A84ED0C0AFFF770FB082206A97C
:101380000020FFF701FDFFF75FFB9DF818000F2815
:1013900050D19DF81B00000200B29DF81A1040EADF
:1013A000010500EE105AB8EEC00AAC48D0ED000AB4
:1013B00020EE200A84ED030A94ED090AD4ED030A15
:1013C00030EE200A84ED090A9DF81D00000200B2EB
:1013D0009DF81C1040EA010500EE105AB8EEC00A54
:1013E0009E48D0ED000A20EE200A84ED040A94ED18
:1013F0000A0AD4ED040A30EE200A84ED0A0A9DF8A8
:101400001F00000200B29DF81E1040EA010500EE28
:10141000105AB8EEC00A9148D0ED000A20EE200A1A
:1014200084ED050A94ED0B0AD4ED050A30EE200A8E
:1014300084ED0B0A06BBF0EE488AB0EE489A002015
:1014400017E004F10C0101EB800191ED000A03A902
:1014500001EB800181ED000A04F10C0101EB800138
:1014600091ED000A694601EB800181ED000A411C03
:10147000C8B20328E5DB49E0B4EEE88AF1EE10FAE1
:1014800001DDF0EE488AB4EEC98AF1EE10FA01D21D
:10149000B0EE489A002037E004F10C0101EB800126
:1014A00091ED000A03A901EB8001D1ED000AB4EE31
:1014B000E00AF1EE10FA0ADD04F10C0101EB800103
:1014C00091ED000A03A901EB800181ED000A04F10E
:1014D0000C0101EB800191ED000A694601EB8001EE
:1014E000D1ED000AB4EEE00AF1EE10FA0AD204F1EE
:1014F0000C0101EB800191ED000A694601EB8001CE
:1015000081ED000A411CC8B20328C5DB38EEC90AC8
:10151000534880ED000A002012E003A901EB80018E
:1015200091ED000A694601EB8001D1ED000A30EE31
:10153000600A4C4901EB800181ED000A411CC8B2F0
:101540000328EADB464890ED000AF6EE000AB4EE06
:10155000E00AF1EE10FA1BDC424890ED000ADFEDE4
:10156000420AB4EEE00AF1EE10FA11DC90ED010A45
:10157000DFED3D0AB4EEE00AF1EE10FA08DC90ED82
:10158000020ADFED390AB4EEE00AF1EE10FA00DDEE
:101590000AE09FED360A01F015FD701C86B2344852
:1015A00000888642FFF687AE00BFD4ED0C0A3048B3
:1015B000008800EE100AB8EE400A80EE801A84ED32
:1015C0000C1A002015E004F1240101EB8001D1ED9B
:1015D000000A2749098800EE101AB8EE400A80EE8A
:1015E000801A04F1240101EB800181ED001A411CF5
:1015F000C8B20328E7DBFFF71DFAA220FFF7E4FBE0
:10160000022206A92220FFF7BFFBFFF709FA9DF887
:101610001800C0009DF8191040EA6115B5F5806FFB
:1016200002DBA5F5006005B200EE105AF8EEC00A24
:10163000B4EE001A1EE00000DC060024833A073BEB
:10164000A6FFC6BA30FF7BB804F81D410000204257
:101650000AD7A33B00000000A4060024A80600242B
:10166000B006002400F001249A99193E6F12033A43
:10167000E0060024B3EE070A00EE810A84ED060AB4
:1016800038480088401C00B236490880364890ED42
:10169000000AF6EE000AB4EEE00AF1EE10FA3FF7A7
:1016A000D1ADD4ED0C0A9FED311A70EEC10AB0EE47
:1016B000600A17F08AFAF6EE000AB4EEE00AF1EEDC
:1016C00010FAECDC2A4890ED000A5FED190AB4EE3E
:1016D000E00AF1EE10FAE2DC90ED010A5FED1E0A7D
:1016E000B4EEE00AF1EE10FAD9DC90ED020A5FEDFB
:1016F000220AB4EEE00AF1EE10FAD0DCD4ED090AC9
:10170000B0EE600A17F061FADFED1A0AB4EEE00AF3
:10171000F1EE10FAC3DCD4ED0A0AB0EE600A17F05D
:1017200054FADFED140AB4EEE00AF1EE10FAB6DC7A
:10173000D4ED0B0AB0EE600A17F047FADFED0D0AA0
:10174000B4EEE00AF1EE10FAA9DC00BF94ED0C0A49
:10175000DFED090A80EE801A84ED081A08B0BDECAE
:10176000048B70BDB6060024B0060024CDCC1C410D
:1017700000F001240AD7233CC3F51C4110B54448AE
:10178000007BC0F34000C0B90020424981F8280026
:101790009FED410A084680ED030A9FED3F0A80ED68
:1017A000060A9FED3D0A3D4880ED140A9FED3A0A76
:1017B00080ED180A002081F829003548007BC0F32D
:1017C0004000002837D0334890F82900002832D153
:1017D000002401F0D9FD2044C4B2012001F0D4FD61
:1017E0002044C4B2022001F0CFFD2044C4B2032043
:1017F00001F0CAFD2044C4B2BCB10020254981F8E3
:1018000028009FED250A084680ED030A9FED220A75
:1018100080ED060A9FED200A204880ED140A9FED16
:101820001E0A80ED180A00F03FF81CB90120194982
:1018300081F8290000BF1748B0F9020000EE100A35
:10184000B8EEC00ADFED160A80EE201A114880EDCE
:10185000041AD0ED040A90ED041AB3EE090A10EE52
:10186000810AF6EE000A20EE200AF2EE060A20EEC9
:10187000200A80ED050A90ED050ADFED0A0A80EEE8
:10188000201A9FED070A21EE000A80ED070A10BD1D
:101890001BD30124D8CE01240000000004BC012485
:1018A0000000C842001CDA447047000010B5B0F5D3
:1018B000004F0DD11A4B1B783BB10023184C2370FD
:1018C0000024184B83F8484602E00123144C23708F
:1018D000134B93F9003047F69D74A4EB4333A3F503
:1018E0008043104CC4F83C362346D3F83C36B3F55D
:1018F000803F06DB2346D3F83C36A3F58033C4F89B
:101900003C36084BD3F83C36002B07DA054BD3F8AE
:101910003C3603F58033034CC4F83C3610BD000060
:10192000CD010024A8B601240A4B93ED0A0ADFED8D
:101930000A0AB4EE600AF1EE10FA04D19FED070A2C
:1019400083ED0A0A04E09FED040A024B83ED0A0AC4
:1019500070470000A8B6012447B266432459864365
:1019600010B50120484908700020484981F8500608
:101970009FED470A084680ED000A9FED460A80ED7C
:10198000010A9FED450A80ED020A9FED440A80EDB1
:10199000030A9FED420A80ED040A002180F8041634
:1019A000394890F9000047F69D71A1EB4030A0F551
:1019B00080403649C1F83C060846D0F83C06B0F5F0
:1019C000803F06DB0846D0F83C06A0F58030C1F821
:1019D0003C062E48D0F83C06002807DA2B48D0F801
:1019E0003C0600F580302949C1F83C0640F20A5116
:1019F0002648C0F840169FED2A0A80ED0A0A9FED9E
:101A0000290A80ED5E0A9FED280A80EDB20A9FED5B
:101A1000270A00F5816080ED040ADFED200A9FEDC2
:101A2000240A00F5BE7010F0EFF9DFED1C0A9FEDFF
:101A3000200A204810F0E8F9DFED180A9FED1E0A91
:101A40001C48303010F0E0F9DFED140A9FED1A0A5F
:101A50001848103010F0D8F9DFED100A9FED170A82
:101A60001448203010F0D0F942F6E06107480187B1
:101A7000A0F88811A0F8D812A0F8281400F020F8D7
:101A800000F014FD10BD0000CD010024A8B6012413
:101A9000F6489E439A59A14300007042000000009E
:101AA0009899F04100000E4300002A439C237F4395
:101AB0000000A0423CBC0124CDCCCC3D9A99193EFB
:101AC00010B500242BE0C4EBC40101EB4102334903
:101AD00001EB021101F15C009FED312ADFED311ABB
:101AE000B1EE081ADFED300AB2EE040A0EF098F9F2
:101AF000C4EBC40101EB4102284901EB021101F1E1
:101B000024009FED2A2ADFED2A1A9FED271ADFED28
:101B1000290A9FED290A0EF083F9601CC4B2042C37
:101B2000D1DB9FED260A26480EF08FF9B2EE062A89
:101B3000F7EE001A9FED231ADFED230A9FED230A2B
:101B400023480EF06DF99FED232ADFED171A9FED64
:101B5000161ADFED150AB0EE080A1D483C380EF0E3
:101B60005FF99FED110A0D485C300EF06BF99FEDA7
:101B70000E0A19480EF066F99FED0B0A1048283836
:101B80000EF060F99FED080A14480EF05BF99FED26
:101B9000140A0F480EF056F910BD0000C0B601241B
:101BA00000007A460000FA450000000000A00C4644
:101BB00000803B450AD7A33C000032430000FA44B2
:101BC000E4B901249A99193E6F12833ACDCCCC3EE8
:101BD000B8BC01240000A0426CB801240CBB012455
:101BE000CDCCCC3D10B5012806D0022809D0042860
:101BF00011D0082814D109E001230B4C84F84C368D
:101C00000FE0FF24084B83F84E460AE00124064B00
:101C100083F84F4605E0FF24034B83F84D4600E070
:101C200000BF00BF10BD0000A8B6012400B52DED17
:101C30000E8B85B09FEDFC0AB0EE40DA9FEDFA0AFC
:101C4000F0EE40DA9FEDF90AF0EE40EA9FEDF80A77
:101C5000F0EE408A9FEDF70AB0EE408A9FEDF60A5B
:101C6000F0EE40AA9FEDF50AB0EE40BA0BF05AFF35
:101C7000F34908800BF068FF00EE100AB8EE400A46
:101C8000F0EE40DAEE4800880F2803DBEC480088CD
:101C9000C8280BDDEB480088E94908809FEDE20A7F
:101CA000F0EE40EA9FEDE00AF0EE40DA9FEDE62A22
:101CB000DFEDDD1A9FEDDC1ADFEDDB0AB0EE080A7E
:101CC000E2480EF0ADF8F0EE6D0AB0EE6E0ADF48B5
:101CD0000EF0BEF8DD487838D0ED250AD8480088E7
:101CE00000EE100AB8EE400A30EE600AD848D0ED97
:101CF000000A30EE600AD74880ED000A90ED000A35
:101D0000F1EE040AB4EEE00AF1EE10FA02D8B1EEF8
:101D1000040A19E0CF48D0ED000AC9480088143001
:101D200000EE100AB8EEC00AF4EEC00AF1EE10FAA6
:101D300007DBC3480088143000EE100AB8EEC00A72
:101D400002E0C44890ED000AC24880ED000A00207D
:101D500069E000EB8001C04A02EB8101097A01B120
:101D60005FE0C0EBC00101EB4102BC4901EB021195
:101D700091ED1E0A60EE280AC0EBC00101EB4102A2
:101D8000B64901EB0211B1F9021000EE101AB8EEDB
:101D9000C00A20EE800AC0EBC00101EB4102AF494E
:101DA00001EB0211B1F9021000EE901AF8EEE00A10
:101DB00020EE881AC0EBC00101EB4102A74901EBFC
:101DC0000211B1F9021000EE901AF8EEE00A01EEED
:101DD000200AC0EBC00101EB4102A04901EB021156
:101DE000D1ED1E0A60EEAA0AC0EBC00101EB410270
:101DF0009A4901EB021191ED1E1A00EE810A30EEB4
:101E00000B0A01A901EB800181ED000A00BF01A9C5
:101E100001EB800191ED000A30EE0D0AB0EE40DAE0
:101E200000BF411CC8B2042893DB8C48183890F8D6
:101E30000D06012860D1854850380FF0E1FFB5EE5E
:101E4000C00AF1EE10FA04DB804850380FF0D8FFDA
:101E500005E07E4850380FF0D3FFB1EE400A7B48D2
:101E60007838D0ED030A80EE209A38300FF0C8FFA2
:101E7000B5EEC00AF1EE10FA04DB744840380FF0FA
:101E8000BFFF05E0714840380FF0BAFFB1EE400ADD
:101E90006E487838D0ED040A80EE201A39EE010A37
:101EA000DFED6F0AB4EEE00AF1EE10FA24DD6D48C2
:101EB00090ED070AF3EE040AB4EEE00AF1EE10FA30
:101EC00012DDB2EE040AF4EEC0DAF1EE10FA0BDD28
:101ED000604890ED000ADFED640A30EE200A5B48AE
:101EE000783880ED2B0A1BE05A4890ED000A5748DD
:101EF000783880ED2B0A13E05848183890F80D0612
:101F000038B9544890ED000A5048783880ED2B0AD3
:101F100006E0504890ED000A4C48783880ED2B0AD6
:101F20004A48783890ED2B0AF1EE040AB4EEE00A44
:101F3000F1EE10FA14D800200CE09FED3B0AC0EB44
:101F4000C00101EB4102454901EB021181ED1E0A7E
:101F5000411CC8B20428F0DB05B0BDEC0E8B00BDFF
:101F60003A487838D0ED2B0AB0EE600A3448008841
:101F700000EE900AF8EE600A15F0D2FDB0EE40EAED
:101F80009FED3A1A28EE811ADFED381A21EE211A58
:101F900021EE281AF1EE001A68EE211A01EECB1A92
:101FA00008EE0E1AF1EE001A6AEEA11A61EE881A16
:101FB0009FED2E2A01EEC21AB7EEC11AB0EE410B08
:101FC00015F0F6FD9FED291A28EE811AB7EEC11A19
:101FD00030EE410BB7EEC81AB0EE002B21EE022B0B
:101FE00080EE021B9FED220B31EE000BBCEEC00B0E
:101FF00010EE100A204908801448783890ED2B0A1A
:10200000B4EECD0AF1EE10FA7ED29FED070AB0EEE3
:10201000409A9FED050AF0EE409A9FED030AF0EE1C
:1020200040BA002093E000000000000000000042E1
:10203000503C23368C6C1834442D2E342CF66940D9
:10204000F0010024DC010024000048437CBC012492
:10205000F4010024E001002488D10124C0B6012449
:10206000CDCC4C3DD8CE01240000A0420000164447
:102070000000000000408F40CA01002400EB8001F6
:10208000FB4A02EB8101097A01B15EE0C0EBC001BD
:1020900001EB4102F74901EB021191ED1E0A60EEDE
:1020A0002A0AC0EBC00101EB4102F24901EB021127
:1020B00091ED1E1AB0EE490A00EE810AB0EE409A88
:1020C000C0EBC00101EB4102EA4901EB021191EDC5
:1020D0001E0A60EE280AC0EBC00101EB4102E5498F
:1020E00001EB0211B1F9021000EE101AB8EEC01A9D
:1020F000B0EE690A00EE810AF0EE409AC0EBC00132
:1021000001EB4102DB4900E019E101EB0211B1F9F9
:10211000021000EE101AB8EEC00A60EE080AC0EB1A
:10212000C00101EB4102D34901EB0211B1F90210E8
:1021300000EE101AB8EEC01AB0EE4B0A00EE810A9B
:1021400030EE2B0AF0EE40BA00BF411CC8B20428A2
:1021500094DBC94890ED2B0A3BEEC00AF0EE40BA82
:1021600029EEA90AF1EE000A69EE200AB0EE40AAB3
:1021700000EEEBAA1FED540AC04880ED000AB5EE50
:10218000C0AAF1EE10FA04D21FED590A80ED000A40
:1021900051E0B7EECA0A15F00BFDB1EE691AB7EEC1
:1021A000C11A30EE010BB0EE001A29EE011AB7EE9B
:1021B000C11A80EE012BB7EEC20BB0EE40CAB7EEEB
:1021C000CA0A15F0F5FCB1EE691AB7EEC11A31EE84
:1021D000400BB0EE001A29EE011AB7EEC11A80EEDC
:1021E000012BB7EEC20BF0EE40CAB5EEC0CAF1EE5D
:1021F00010FA09DBB7EE000AB4EEC0CAF1EE10FA2D
:1022000002D89E4880ED00CAF5EEC0CAF1EE10FA81
:1022100010DBB7EE000AF4EEC0CAF1EE10FA09D8EE
:10222000F0EE6C0A954890ED000A15F079FC9348A1
:1022300080ED000A00BF914890ED000AB5EEC00A9B
:10224000F1EE10FA5EDB90ED000AF7EE000AB4EE54
:10225000E00AF1EE10FA55D8002050E0C0EBC001C2
:1022600001EB4102834901EB021191ED1E0A834902
:10227000D1ED000A20EE200AC0EBC00101EB4102C3
:102280007C4901EB021181ED1E0AC0EBC00101EB9C
:102290004102784901EB021191ED1E0ADFED780A47
:1022A000B4EEE00AF1EE10FA02D89FED750A1BE0D9
:1022B000C0EBC00101EB41026E4901EB021191ED4F
:1022C0001E0ADFED700AB4EEE00AF1EE10FA02DB4E
:1022D0009FED6C0A08E0C0EBC00101EB41026549CB
:1022E00001EB021191ED1E0AC0EBC00101EB4102AE
:1022F000604901EB021181ED1E0A411CC8B204289D
:10230000ACDB1BE0002017E0C0EBC00101EB410299
:10231000584901EB021191ED1E0ADFED5B0A20EE38
:10232000200AC0EBC00101EB4102524901EB02114E
:1023300081ED1E0A411CC8B20428E5DB00BF002065
:102340003EE0C0EBC00101EB41024A4901EB021142
:1023500091ED1E0AB7EEC00AB0EEC00B9FED4B1B0D
:10236000B4EEC10BF1EE10FA28DBC0EBC00101EBBB
:102370004102404901EB021191ED1E0AB7EEC00A7D
:10238000B0EEC00BC0EBC00101EB4102394901EBDB
:10239000021191ED1E1AB7EEC11A81EE002B9FEDCE
:1023A0003B0B22EE000BB7EEC00BC0EBC00101EB04
:1023B0004102304901EB021181ED1E0A411CC8B2F5
:1023C0000428BEDB002047E0C0EBC00101EB410266
:1023D000284901EB021191ED1E0ADFED290AB4EE46
:1023E000E00AF1EE10FA02D89FED250A1BE0C0EBDF
:1023F000C00101EB41021F4901EB021191ED1E0AE0
:10240000DFED200AB4EEE00AF1EE10FA02DB9FEDF8
:102410001D0A08E0C0EBC00101EB4102154901EBC8
:10242000021191ED1E0AC0EBC00101EB41021149FE
:1024300001EB021181ED1E0AC0EBC00101EB41026C
:102440000C4901EB021191ED1E0A124901EB8001CA
:1024500081ED000A411CC8B20428B5DB0E48008893
:1024600032281BDD43F2B06102481838018719E0B9
:1024700088D10124C0B6012404BC0124EC0100244D
:1024800000007AC600007A4617B7D1380000000075
:102490000040CF4060BD0124F00100244FF4FA5108
:1024A0000148018700BF57E5A8B6012410B51D4BB0
:1024B000022200210F200EF025FB1B4B03220021DE
:1024C0000F200EF01FFB194B022200214FF49860E1
:1024D0000EF018FB164B0222002150030EF012FBE7
:1024E000144B022201214FF4C0700EF00BFB124B73
:1024F0000222002190030EF005FB104B0222114630
:1025000090030EF0FFFA0E4B0222002110030EF092
:10251000F9FA0B4B032200214FF400500EF0F2FAAF
:1025200010BD0000E51B000869260008B126000860
:10253000DD28000845250008AD1800082919000805
:1025400085430108802803D0B0F5807F14D109E0CD
:102550000B4B93ED060ADFED0B0A30EE200A83EDFC
:10256000060A0AE0064B93ED060ADFED060A30EE96
:10257000600A83ED060A00BF00BF00BF704700007D
:1025800070BD01240000344310B52DED028B31489D
:1025900090F8480601280DD02F48007A022809D16A
:1025A0002D48407A012805D002220121402000F068
:1025B0007FF80DE0274890F84806012808D1264802
:1025C000007A032804D102220121402000F070F893
:1025D0002148407A03280CD11F48007A012808D1ED
:1025E0001E480078032804D1022200219003FFF73F
:1025F0005DF91948B0F9040000EE100AB8EEC00AFF
:102600001748D0ED030A20EE200ADFED160A80EE0F
:10261000201AB0EE418AB0EE480A28300FF052FC82
:102620000D48B0F9060000EE100AB8EEC00A0C48DA
:10263000D0ED040A20EE200ADFED0A0A80EE201A0F
:10264000B0EE418AB0EE480A38300FF03BFCBDECEA
:10265000028B10BDA8B60124FCDA0124CC010024B1
:1026600004BC01240000254410B5012806D002282E
:1026700009D0042811D0082814D109E000230B4CFC
:1026800084F84C360FE00024084B83F84E460AE0ED
:102690000024064B83F84F4605E00024034B83F8E3
:1026A0004D4600E000BF00BF10BD0000A8B60124E9
:1026B00070B504460D4616461D4890F8480610B9F8
:1026C0001C48007820B90021194880F848162DE0F0
:1026D0001848007850B3402C02D0802C24D110E050
:1026E00015480DF089FB0121114880F8481600F2C9
:1026F0005C50D0ED050AB0EE600A68300FF0E2FBE6
:1027000013E00D4890ED080AB5EEC00AF1EE10FA9C
:1027100004D1B2EE060A80ED080A04E09FED070A34
:10272000054880ED080A00E000BF00BF70BD000052
:10273000A8B60124CD010024B8BC0124000000008B
:1027400070B52DED028B5C480FF06EFB5A481030CF
:102750000FF06AFB584840300FF066FB574890F97D
:102760004C1690F94E06084400EE900AF8EEE00A86
:102770005148283890ED041A60EE810AB0EE600AE4
:1027800038300FF09FFB4D4890F94F1690F94D06E9
:10279000084400EE900AF8EEE00A4748283890ED29
:1027A000031A60EE810AB0EE600A28300FF08AFB4F
:1027B0000FF08CFB0BF0B6F9462814DD00250FE076
:1027C000C5EBC50101EB41023C49183101EB021197
:1027D00001F184009FED3A0A0DF037FB681CC5B289
:1027E000042DEDDB13E000250FE0C5EBC50101EB87
:1027F00041023249183101EB021101F184009FEDD1
:10280000310A0DF022FB681CC5B2042DEDDB41F648
:102810004C542A4890ED000AD0ED010A30EE200A0F
:10282000F1EE000A80EE208A00EE104AF8EE400A2F
:102830009FED251A80EE810A9FED241AC0EE010A51
:10284000B0EE000A20EE800ADFED210A20EE200A19
:10285000D0ED020A20EE200A00F25C5080ED030A5F
:1028600090ED030A80ED040A9FED1A0AC0EE080AF3
:102870009FED151A80EE810A9FED141AC0EE010A31
:10288000B0EE000A20EE800ADFED110A20EE200AE9
:102890000A48D0ED020A20EE200AF7EE000A20EEE8
:1028A000200ADFED0D0A80EE201A00F25C5080ED68
:1028B000051ABDEC028B70BD2CBC0124A8B6012406
:1028C000000048440080BB44000070423C3C7C4116
:1028D000DB0F49400080BB45F4FDB43F10B50D4B04
:1028E00093F80D365BB90C4BB3F90030502B06DD75
:1028F0000124084B83F80D4683F8044610BD054BB0
:1029000093F80D36012B03D10024024B83F80D46BA
:1029100000BFF3E7A8B60124D8CE012400B50146D4
:10292000F0EE403AB0EE604AB0EE413AB1EE431AF2
:10293000F0EE440AB0EE630A01F150000DF05DF8CC
:10294000D1ED190AB0EE600AF0EE430A08460DF028
:102950007FFA91ED070A81ED200A00BD9FED0A0A7A
:1029600080ED040A9FED080A80ED030A9FED060A38
:1029700080ED060A9FED040A80ED050A9FED020A2C
:1029800080ED080A704700000000000080ED000A9A
:10299000C0ED010A80ED021AC0ED0B1A80ED0A2A83
:1029A000C0ED092A7047000010B5024801F0DAFEB8
:1029B00010BD0000F40B002410B5024801F0D2FE57
:1029C00010BD00006C0C002410B5024801F0CAFED6
:1029D00010BD00009010002410B5024801F0C2FEA6
:1029E00010BD00000811002410B5024801F0BAFE25
:1029F00010BD0000C80D002410B5024801F0B2FE61
:102A000010BD0000F811002410B5024801F0AAFE24
:102A100010BD00007012002410B5024801F0A2FEA3
:102A200010BD0000801100240146374A086890421A
:102A300049D0354A18320868904244D0324A303280
:102A4000086890423FD0304A4832086890423AD0F5
:102A50002D4A60320868904235D02B4A7832086897
:102A6000904230D0284A9032086890422BD0264AB3
:102A7000A8320868904226D0244A0868904222D0A2
:102A8000224A1832086890421DD0204A3032086825
:102A9000904218D01D4A48320868904213D01B4A11
:102AA0006032086890420ED0184A78320868904226
:102AB00009D0164A90320868904204D0134AA832CE
:102AC0000868904201D1012000E00020B0B10A78EE
:102AD000103A1823B2FBF3F000F007020C4B9A5C9B
:102AE000CA65032805D90A686FF30902121D8A65B1
:102AF00003E00A686FF309028A6503E0086820F0C2
:102B0000FF008865886D7047100002401004024085
:102B1000C4A4010810B502682B4C0368A34222D05C
:102B2000294C14340368A3421DD0274C2834036871
:102B3000A34218D0244C3C340368A34213D0224C47
:102B400050340368A3420ED01F4C64340368A34280
:102B500009D01D4C78340368A34204D01A4C8C343D
:102B60000368A34201D1012300E000238BB1037865
:102B7000083B1424B3FBF4F1144B03EB810303660D
:102B8000124B8033436601F01F040123A340836688
:102B900018E00378103B1824B3FBF4F10C4B9A4275
:102BA00004D80B4BA83B9A4200D30831094B03EBE6
:102BB00081030366074B8033436601F01F04012342
:102BC000A340836610BD0000085402580058025804
:102BD000B8040240000802400179A9B3082940D88E
:102BE000204B02689A4222D01E4B143302689A424C
:102BF0001DD01C4B283302689A4218D0194B3C3325
:102C000002689A4213D0174B503302689A420ED092
:102C1000144B643302689A4209D0124B783302682D
:102C20009A4204D00F4B8C3302689A4201D10122A0
:102C300000E000224AB14A1E0B4B03EB8202C2663F
:102C4000094A4032026708E00BE04A1E074B03EBDB
:102C50008202C266054A403202674A1E012393403F
:102C6000436770470854025800590258000902404F
:102C7000014600208A69D2B98A6A32B1012A0DD090
:102C8000022A03D0032A10D10EE000BFCA6A02F064
:102C90008072B2F1807F00D1012007E0CA6AB2F1F0
:102CA000C07F00D1012001E000E000BF36E08A696A
:102CB000B2F5005F1BD18A6A32B1012A07D0022A1D
:102CC00003D0032A11D10AE000BF01200EE0CA6A36
:102CD00002F08072B2F1807F00D1012006E0CA6A62
:102CE000B2F1C07F00D1012000E000BF16E08A6A87
:102CF00032B1012A05D0022A04D0032A0CD103E004
:102D000000BF00BF012008E0CA6A02F08072B2F181
:102D1000807F00D1012000E000BF00BF70470000AD
:102D2000F0B5856D846D984F0668BE4270D0964FA1
:102D300018370668BE426BD0934F30370668BE42E4
:102D400066D0914F48370668BE4261D08E4F6037DB
:102D50000668BE425CD08C4F78370668BE4257D0BA
:102D6000894F90370668BE4252D0874FA837066811
:102D7000BE424DD0854F0668BE4249D0834F1837BA
:102D80000668BE4244D0814F30370668BE423FD00D
:102D90007E4F48370668BE423AD07C4F603706689F
:102DA000BE4235D0794F78370668BE4230D0774F73
:102DB00090370668BE422BD0744FA8370668BE42D3
:102DC00026D0734F0668BE4222D0714F1437066872
:102DD000BE421DD06E4F28370668BE4218D06C4FD9
:102DE0003C370668BE4213D0694F50370668BE4272
:102DF0000ED0674F64370668BE4209D0644F7837FB
:102E00000668BE4204D0624F8C370668BE4201D1CC
:102E1000012600E000263EB1D0E919767E60C66E3C
:102E200016B1D0E91C767E60574F0668BE4249D085
:102E3000554F18370668BE4244D0534F30370668A6
:102E4000BE423FD0504F48370668BE423AD04E4F40
:102E500060370668BE4235D04B4F78370668BE42B1
:102E600030D0494F90370668BE422BD0464FA83726
:102E70000668BE4226D0454F0668BE4222D0434F68
:102E800018370668BE421DD0404F30370668BE4234
:102E900018D03E4F48370668BE4213D03B4F6037CC
:102EA0000668BE420ED0394F78370668BE4209D058
:102EB000364F90370668BE4204D0344FA8370668B4
:102EC000BE4201D1012600E00026DEB190F85C6030
:102ED00006F01F073F26BE40AE600668366826F43F
:102EE000802607683E60066873608668402E04D1BD
:102EF0000668B2600668F16044E00668B160066882
:102F0000F2603FE0224F0668BE4222D0204F1437C5
:102F10000668BE421DD01E4F28370668BE4218D034
:102F20001B4F3C370668BE4213D0194F5037066816
:102F3000BE420ED0164F64370668BE4209D0144F09
:102F400078370668BE4204D0114F8C370668BE42FF
:102F500001D1012600E00026A6B190F85C6006F0E1
:102F60001F070126BE406660066873608668402EB3
:102F700004D10668B2600668F16003E00668B160DB
:102F80000668F260F0BD000010000240100402402C
:102F90000854025808B5084840680090074900984E
:102FA0000968884204D206480068401C0449086049
:102FB00002490098086008BD001000E0A802002443
:102FC000A40200240C494868F0EE400A00BF0A49F8
:102FD0004968091A01EE101AF8EE411A074991EDF5
:102FE000001AB8EE411A20EE811AF4EEC11AF1EE81
:102FF00010FAECD370470000001000E098020024A3
:1030000010B52DED028B82B004460E484068019049
:1030100020680199081A00EE100AF8EE400A0A48E2
:1030200090ED000AB8EE400A80EE801AB0EE418AB8
:1030300001982060FFF7AEFFB0EE480A02B0BDEC89
:10304000028B10BD001000E09802002410B52DED99
:10305000028B00F059F80F4890ED000AB8EE400AD4
:10306000808800EE900AF8EE600A9FED0B1A00EEE1
:10307000810A0848C08800EE900AF8EE600A9FEDC9
:10308000071A00EE810AB0EE408AB0EE480ABDECA5
:10309000028B10BD900200246F12833ABD37863533
:1030A0001249096841F08071104A11600021104AEC
:1030B00051601146096841F0010111600D49414319
:1030C0000D4A1160114609684FF47A72B1FBF2F1B2
:1030D0000A4A116008490968064AB1FBF2F1084A38
:1030E00011600021074A116070470000FCED00E00C
:1030F000001000E040420F00980200249C020024CF
:10310000A0020024A402002438B529484068009099
:10311000FFF740FF274800684FF0FF31A0FB013167
:103120000098181841F10001234A03C223480023E4
:103130002149026803C9FDF717FA214A03C2204852
:103140000CC81E4800680024A2FB001503FB0050B9
:1031500002FB04021848D0E90030591A60EB020063
:10316000184AC2E900101648006817490860174855
:1031700000231449026803C9FDF7F6F91249888053
:10318000084680881149096841430E48D0E900305B
:10319000591A60F100000E4AC2E900100D480023E0
:1031A0000B49026803C9FDF7DFF90749C88038BD3C
:1031B000001000E0A4020024B002002498020024C1
:1031C000B8020024C0020024900200249C020024C3
:1031D000C8020024A002002470470000042805D182
:1031E0009FED0E0A0E4981ED190A16E0052805D15A
:1031F0009FED0A0A0A4981ED6D0A0EE0062805D105
:103200009FED060A064981EDC10A06E0072804D1B0
:103210009FED020A034981ED130A70470000000088
:10322000A8B60124B0BA012410B50446042C03D179
:103230000A480BF097FF10E0052C03D108480BF06B
:1032400091FF0AE0062C03D106480BF08BFF04E047
:10325000072C02D104480BF085FF10BDC0B6012435
:1032600010B8012460B90124B0BA012400B50023CC
:103270001A463221184600F06BF800231A46322114
:10328000012000F065F800231A463221022000F0E8
:103290005FF800231A463221032000F059F800237A
:1032A0001A463221042000F053F800231A46322136
:1032B000052000F04DF800231A463221062000F0C8
:1032C00047F800231A463221072000F041F8002376
:1032D0001A463221082000F03BF800231A4632211A
:1032E0000C2000F035F800231A4632210A2000F0A5
:1032F0002FF800231A4632210B2000F029F8002372
:103300001A463221092000F023F800230D4A6421D7
:103310000D2000F01DF800231A464FF4FA710E201C
:1033200000F016F800231A464FF4FA710F2000F04F
:103330000FF8054B054A4FF4FA71102000F008F819
:1033400000BD0000AD070108EF3E0008ED3E00089B
:1033500070B500EB80040B4D45F82410002400EB01
:103360008005084E06EB85052C7200EB800435467F
:1033700005EB8404E26000EB800405EB8404236128
:1033800070BD000088D10124014601EB8100024A92
:1033900002EB8000007A704788D1012410B5044602
:1033A00003F05AFC04EB8401024A02EB81014860FD
:1033B00010BD000088D10124D2ED020A92ED021A5C
:1033C000B6EE000A00EEC10AD2ED030A92ED031A2E
:1033D00000EEC10AD0ED000A20EE200AD2ED010A6B
:1033E00092ED021A60EE810A92ED001AD2ED031AF4
:1033F00041EE210A90ED011A00EE810AD2ED010A98
:1034000092ED031A60EE810A92ED001AD2ED021AD3
:1034100041EE610A90ED021A00EE810AF0EE000A18
:1034200020EE200A81ED000A92ED010AD2ED020A97
:1034300020EE200AD2ED000A92ED031A00EEC10A36
:10344000D0ED000A60EE200A92ED011AD2ED011AC9
:10345000B6EE000A01EE610AD2ED031A92ED032ADC
:10346000B0EE401A01EEC21AD0ED011AB0EE600AB9
:1034700001EE210AD2ED020A92ED031A60EE810AF2
:1034800092ED001AD2ED011A41EE210A90ED021AD6
:1034900000EE810AF0EE000A20EE200A81ED010A1A
:1034A00092ED010AD2ED030A20EE200AD2ED000AC5
:1034B00092ED021A00EE810AD0ED000A20EE200AF9
:1034C000D2ED020A92ED031A60EE810A92ED001A23
:1034D000D2ED011A41EE610A90ED011A00EE810A67
:1034E00092ED011AD2ED011AF6EE000A41EE610AE0
:1034F00092ED021AD2ED021A41EE610A90ED021A23
:1035000000EE810AF0EE000A20EE200A81ED020AA8
:10351000704772B600BFFEE70748006840F002003F
:103520000549086000BF04480838006800F40050EE
:103530000028F8D0704700000C48025810B5024827
:1035400002F08EFD10BD00008C09002410B5024869
:1035500002F086FD10BD00008C09002410B5024861
:1035600002F07EFD10BD00002C0A002410B50248B8
:1035700002F076FD10BD00002C0A002410B50248B0
:1035800002F06EFD10BD0000CC0A002410B5024808
:1035900002F066FD10BD0000CC0A002410B5014603
:1035A0004A6B0868D0F884004FF6FC74A04340EAE8
:1035B00082000C68C4F884000868D0F8840020F405
:1035C0007F04088F44EA00400C68C4F88400886BCC
:1035D00002440868D0F888004FF6FC74A04340EA23
:1035E00082000C68C4F888000868D0F8880020F4CD
:1035F000FE04888F44EA00400C68C4F88800C86B59
:1036000002EB40020868D0F8A0004FF6FC74A0431B
:1036100040EA82000C68C4F8A0000868D0F8A00056
:1036200020F4FE044020405A44EA00400C68C4F8EC
:10363000A000D1E9104004FB00220868D0F8B000D7
:103640004FF6FC74A04340EA82000C68C4F8B00056
:103650000868D0F8B00020F4FE04B1F8480044EA4D
:1036600000400C68C4F8B000D1E9124004FB00220D
:103670000868D0F8AC004FF6FC74A04340EA820022
:103680000C68C4F8AC00D1E9144004FB00220868BF
:10369000D0F8F0004FF6FC74A04340EA82000C68BA
:1036A000C4F8F0000868D0F8F00020F47C14B1F8F9
:1036B000580044EA00400C68C4F8F000886D02EB42
:1036C00040020868D0F8C0004FF6FC74A04340EAFE
:1036D00082000C68C4F8C0000868D0F8C00020F46C
:1036E0007C14B1F85C0044EA00400C68C4F8C000E7
:1036F0000868D0F8C00020F07C5491F8600044EADB
:1037000000600C68C4F8C0002A4C486B04EB8000D1
:10371000C866CC6E886B04EB80040C670C6FC86BBA
:1037200004EBC0044C67D1E9100460434C6F04EB18
:1037300080048C67D1E9120460438C6F04EB800431
:10374000CC67D1E914046043CC6F04EB8004802083
:1037500044504458886D04EBC004842044508C6E5F
:10376000C86D60438424645804EB8004882044506E
:103770008C6E086E60438824645804EB80049020AB
:10378000445040580C4CA04209D99831486840F048
:1037900020004860032001F89809012010BDCB6E7D
:1037A00002E0002018601B1D902040589842F8D875
:1037B0000020F3E700AC0040FCD300402DE9F041CD
:1037C000054614461E46D1F804C0BCF1000F0AD1CC
:1037D000D1F810C0D1F808804CEA080CB1F800808C
:1037E0004CEA88430BE0D1F810C04CF0804CD1F883
:1037F00008804CEA080CD1F800804CEA080391F8E4
:103800002080D1F81CC04CEA086CD1F818804CEA32
:10381000080CD1F814804CEA080CB1F80C804CEA82
:103820000847D5F868C00CFB06FCD5F8848008EB87
:103830008C021360121D1760121D002019E000F1A8
:10384000030C14F80CC04FEA0C6800F1020C14F8D9
:103850000CC048EA0C4800F1010C14F80CC048EA0E
:103860000C2C14F800804CEA080CC2F800C0121DA1
:10387000001DDFF81480D1F80CC018F80CC0844586
:10388000DDD8BDE8F0810000CCA40108F0EE400ACC
:103890009FED180AB0EE401A002112E04A1C00EB1E
:1038A000820292ED000A00EB810282ED000A00EB39
:1038B000810292ED000A30EE010AB0EE401A4A1C75
:1038C00091B2B0F89021521E8A42E7DCB0F8901114
:1038D000491E00EB8101C1ED000A31EE200AB0EE75
:1038E000401AB0F8901100EE101AF8EE401A81EE6E
:1038F000210A704700000000A0F89011002207E0A4
:103900009FED050A00EB820383ED000A531C9AB277
:103910008A42F5DB704700000000000030B5034626
:1039200013B94FF6FF7030BD09E013F8014B82EA7E
:103930000400C0B2054D35F8100080EA2222081EAE
:10394000A1F10101F1D11046EDE7000012A7010835
:1039500030B5034605E013F8010B80EA0204044881
:10396000025D081EA1F10105A9B2F4D1104630BDD7
:1039700011A6010870B50A480468001D0568001DFD
:103980000668344454B10822064920460AF0AAF8D1
:1039900004220449103128460AF0A4F870BD000042
:1039A00000E8F11F8E00002410B59FED1D0A1D4890
:1039B00080ED310ABAEE0D0A80ED320A9FED1A0A47
:1039C00080ED2C0A90ED2C0A80ED300A9FED160A4E
:1039D00080ED000A90ED000A80ED060A00201149F2
:1039E00081F8380281F8390281F8700AA1F83A02A8
:1039F0009FED0D0A084680ED8F0A0A2100F58360CD
:103A0000FFF77AFF02210948FFF776FF19210848DE
:103A1000FFF772FF00F00EF800F0AEF810BD0000E6
:103A20000000004270BD012400000000F4BF01242A
:103A30004CC6012410B59FED1E2ADFED1E1A9FED26
:103A40001E1ADFED1E0AB1EE0E0A1D480CF0E8F951
:103A5000DFED1C2A9FED1C2ADFED1C1A9FED1C1ABE
:103A6000DFED1C0A9FED1C0A15485030FEF78EFF53
:103A70009FED0F2ADFED141AB0EE0C1ADFED170AD6
:103A80009FED170A0E48B0380CF0CAF9DFED152A81
:103A90009FED0D2ADFED0D1A9FED131ADFED130ACE
:103AA000B3EE080A06486038FEF770FF10BD00004C
:103AB000000000450000FA43C3F5A83E8FC2F53C64
:103AC0003CBE01246666663F00007A44000048431D
:103AD0008FC2753C0AD7233C00000C420AD7A33C96
:103AE0009A99B9406666E63E9A99193EA69B443C6F
:103AF00010B59FED1D0A1D4880EDCB0A9FED1A0AF7
:103B000080EDCA0A1A48B0F90A0000EE900AF8EEF1
:103B1000E00A164890EDCB1A60EE810AB0EE600A1A
:103B200000F5CA70FFF7B2FE1248D0ED060A30EE7B
:103B3000C00A80ED060A0E48B0F90C0000EE900AAB
:103B4000F8EEE00A094890EDCA1A60EE810AB0EE7C
:103B5000600AFFF79BFE0748D0ED300A30EE200ADE
:103B600080ED300A10BD00000AD7A33BF4BF01244A
:103B7000FCDA012470BD012410B5034B022201219F
:103B800008020CF0BFFF10BD8D3B000870B5044665
:103B90000D4616469FED0A0A0A480EF093F99FED6E
:103BA000080A084810380EF08DF9074890ED060A0B
:103BB000DFED060A30EE200A80ED060A70BD000037
:103BC000000000003CBC012470BD0124000034430F
:103BD0001A48B0F9000000EE100AB8EEC00B9FEDD5
:103BE000181B20EE010B9FED182B80EE021B1848CE
:103BF00090ED060AB7EEC00A30EE410BB7EEC00BEF
:103C000080ED060A0D48B0F9020000EE100AB8EE89
:103C1000C00B9FED0B1B20EE011B9FED0B2B81EECC
:103C2000020B0B4890ED301AB7EEC11A30EE010BC3
:103C3000B7EEC00B80ED300A70470000FCDA0124BB
:103C4000666666666666D63F0000000000A0844097
:103C500070BD012410B52DED028B13F0C7F9564845
:103C600080ED050A13F0AAF9534880ED010A13F01C
:103C7000ABF9514880ED2F0A13F09AF94E4880EDC8
:103C80002D0A9FED4E0AB0EE408A90ED010AD0ED6C
:103C9000020A30EE600ADFED4A0AB4EEE00AF1EE05
:103CA00010FA0CD290ED010AD0ED020A9FED451AF0
:103CB00071EE600A30EE200AB0EE408A25E03E4800
:103CC00090ED010AD0ED020A30EE600ADFED3E0A07
:103CD000B4EEE00AF1EE10FA0EDD90ED020AB1EE5C
:103CE000400AD0ED010A9FED371A71EE600A30EEFE
:103CF000600AB0EE408A08E02F4890ED010AD0ED4E
:103D0000020A30EE600AB0EE408A2B4890ED030ABA
:103D100030EE080A80ED030A2BE0274890ED060AF2
:103D2000D0ED030A30EE600ADFED260AB4EEE00AB9
:103D3000F1EE10FA07DB90ED060ADFED220A30EE15
:103D4000600A80ED060A1C4890ED030AD0ED060AD1
:103D500030EE600ADFED1B0AB4EEE00AF1EE10FA75
:103D600007DB90ED060ADFED170A30EE200A80ED42
:103D7000060A114890ED060AD0ED030A30EE600AFB
:103D8000DFED100AB4EEE00AF1EE10FAC5DA90EDBC
:103D9000030AD0ED060A30EE600ADFED0A0AB4EE3F
:103DA000E00AF1EE10FAB8DA90ED010A80ED020AAD
:103DB000BDEC028B10BD000070BD012400000000AE
:103DC000000087C30000B443000087434248D0EDA1
:103DD000060A9FED421AC0EE811AF5EEC01AF1EE06
:103DE00010FA0CDD90ED061ADFED3C1AC1EE210A47
:103DF000B6EE001A70EE810ABDEEE00A0CE036481D
:103E000090ED061ADFED351AC1EE210AB6EE001A62
:103E100070EEC10ABDEEE00A3148D0ED000AB8EEFE
:103E2000C01ADFED2E1A41EE210A2B4890ED061A3A
:103E300070EEC10A9FED2B1AF4EEC10AF1EE10FAF2
:103E400010DD2748D0ED000AB8EEC01ADFED231AC6
:103E500041EE210A9FED211A70EEC10A1E48C0ED05
:103E6000060A31E01E48D0ED000AB8EEC01ADFEDB8
:103E70001B1A41EE210A184890ED061A70EEC10A8D
:103E80009FED191AF4EEC10AF1EE10FA10D214489F
:103E9000D0ED000AB8EEC01ADFED101A41EE210A8B
:103EA0009FED0E1A70EE810A0B48C0ED060A0BE07A
:103EB0000B48D0ED000AB8EEC01ADFED081A41EE4B
:103EC000210A0548C0ED060A0548D0ED010A02485E
:103ED000C0ED300A7047000070BD01240000B443FB
:103EE000C8CD012400003443000034C3704770473C
:103EF0002DE9F041044602F0AFFE804614B90120DE
:103F0000BDE8F08194F83500022808D08020606573
:103F100000BF002084F8340000BF0120F0E7FE4914
:103F20002068884249D0FC4918312068884244D032
:103F3000F9493031206888423FD0F749483120683C
:103F400088423AD0F44960312068884235D0F2493D
:103F500078312068884230D0EF499031206888421B
:103F60002BD0ED49A8312068884226D0EB49206843
:103F7000884222D0E9491831206888421DD0E7499B
:103F800030312068884218D0E4494831206888429E
:103F900013D0E2496031206888420ED0DF49783181
:103FA0002068884209D0DD4990312068884204D0D9
:103FB000DA49A8312068884201D1012000E00020C0
:103FC00068B12068006820F01E0021680860206841
:103FD000406920F0800021684861256806E020687B
:103FE000006820F00E00216808602568CA49206832
:103FF000884270D0C8491831206888426BD0C649C1
:1040000030312068884266D0C349483120688842F0
:1040100061D0C1496031206888425CD0BE497831A6
:104020002068884257D0BC4990312068884252D0DD
:10403000B949A831206888424DD0B84920688842E3
:1040400049D0B64918312068884244D0B34930314C
:10405000206888423FD0B1494831206888423AD030
:10406000AE4960312068884235D0AC49783120684B
:10407000884230D0A9499031206888422BD0A74986
:10408000A8312068884226D0A5492068884222D0DD
:10409000A3491431206888421DD0A14928312068E5
:1040A000884218D09E493C312068884213D09C49F0
:1040B0005031206888420ED0994964312068884286
:1040C00009D0974978312068884204D094498C31CE
:1040D0002068884201D1012000E0002028B1206E34
:1040E000006820F48070216E08608B492068884247
:1040F00049D0894918312068884244D086493031F6
:10410000206888423FD084494831206888423AD0AC
:10411000814960312068884235D07F4978312068F4
:10412000884230D07C499031206888422BD07A492F
:10413000A8312068884226D078492068884222D059
:1041400076491831206888421DD074493031206882
:10415000884218D0714948312068884213D06F498D
:104160006031206888420ED06C49783120688842DE
:1041700009D06A4990312068884204D06749A83143
:104180002068884206D12068006820F0010021687C
:10419000086005E02068006820F0010021680860E0
:1041A00011E002F059FDA0EB080005280BD92020F2
:1041B0006065032084F8350000BF002084F83400D7
:1041C00000BF01209CE6286800F001000028E8D12B
:1041D00051492068884249D04F49183120688842A7
:1041E00044D04D493031206888423FD04A49483157
:1041F000206888423AD0484960312068884235D0EA
:10420000454978312068884230D043499031206850
:1042100088422BD04049A8312068884226D03F49A7
:104220002068884222D03D491831206888421DD03C
:104230003A4930312068884218D0384948312068DE
:10424000884213D035496031206888420ED0334906
:1042500078312068884209D03049903120688842FE
:1042600004D02E49A8312068884201D1012000E005
:10427000002040B1A66D94F85C0000F01F013F20C3
:104280008840B06007E0A76D94F85C0000F01F0163
:1042900001208840786020492068884276D01E49F5
:1042A00018312068884271D01B493031206888421B
:1042B0006CD0194948312068884267D0164960316E
:1042C0002068884262D014497831206888425DD0E5
:1042D000114990312068884258D00F49A831206890
:1042E000884253D00D49206888424FD00B4918317D
:1042F000206888424AD0094930312068884245D038
:10430000064948312068884240D00449603120681D
:1043100088423BD0014905E01000024010040240F1
:10432000085402587831206888422FD025492068E7
:1043300088422BD0234918312068884226D0224950
:104340002068884222D020491431206888421DD03C
:104350001D4928312068884218D01B493C3120680B
:10436000884213D018495031206888420ED016492F
:1043700064312068884209D0134978312068884226
:1043800004D011498C312068884201D1012000E01D
:10439000002068B1D4E919104860E06E40B1E06EC9
:1043A000006820F48070E16E0860D4E91C10486059
:1043B000012084F8350000BF002084F8340000BFDD
:1043C00000BF9DE5A00402400854025870B50446A1
:1043D0000CB9012070BD94F83500022803D080206C
:1043E00060650120F6E7DC492068884249D0DA4957
:1043F00018312068884244D0D7493031206888423B
:104400003FD0D5494831206888423AD0D2496031FE
:104410002068884235D0D04978312068884230D031
:10442000CD499031206888422BD0CB49A8312068F3
:10443000884226D0C9492068884222D0C74918310D
:10444000206888421DD0C54930312068884218D084
:10445000C24948312068884213D0C0496031206881
:1044600088420ED0BD4978312068884209D0BB49C6
:1044700090312068884204D0B849A8312068884229
:1044800001D1012000E00020F0B3042084F83500C1
:10449000B149206888424BD0AF4918312068884222
:1044A00046D0AD4930312068884241D0AA494831D0
:1044B000206888423CD0A84960312068884237D0C3
:1044C000A54978312068884232D0A34990312068CC
:1044D00088422DD0A049A8312068884228D09F4921
:1044E0002068884224D09D491831206888421FD016
:1044F0009A493031206888421AD09849483120685A
:10450000884215D0954900E020E06031206888425B
:104510000ED0924978312068884209D08F49903175
:104520002068884204D08D49A8312068884206D18D
:104530002068006820F001002168086009E1206817
:10454000006820F001002168086002E1206800682E
:1045500020F00E00216808607F492068884249D019
:104560007D4918312068884244D07B493031206829
:1045700088423FD078494831206888423AD076490D
:1045800060312068884235D073497831206888428C
:1045900030D071499031206888422BD06E49A831C3
:1045A0002068884226D06D492068884222D06B4915
:1045B0001831206888421DD068493031206888420F
:1045C00018D0664948312068884213D06349603169
:1045D000206888420ED0614978312068884209D02D
:1045E0005E4990312068884204D05C49A831206837
:1045F000884206D12068006820F001002168086028
:1046000005E02068006820F0010021680860524938
:104610002068884270D050491831206888426BD099
:104620004D4930312068884266D04B494831206876
:10463000884261D048496031206888425CD0464950
:1046400078312068884257D04349903120688842A9
:1046500052D04149A831206888424DD03F49206856
:10466000884249D03D4918312068884244D03B49AE
:104670003031206888423FD038494831206888422C
:104680003AD0364960312068884235D03349783194
:104690002068884230D031499031206888422BD040
:1046A0002E49A8312068884226D02D4920688842AA
:1046B00022D02B491431206888421DD02849283146
:1046C0002068884218D026493C312068884213D09F
:1046D00023495031206888420ED021496431206836
:1046E000884209D01E4978312068884204D01C498C
:1046F0008C312068884201D1012000E00020D8B12F
:10470000206E006820F48070216E0860A56D94F81A
:104710005C0000F01F01012088406860D4E9191096
:104720004860E06E40B1E06E006820F48070E16E99
:104730000860D4E91C104860012084F8350000BFEF
:10474000002084F8340000BF206D10B12046216D98
:10475000884700203EE6000010000240100402409E
:10476000085402582DE9F84F044600200090FE48F6
:1047700000684FF41651B0FBF1FAA66DD4F85880DA
:104780003768D8F80090F9492068884249D0F7493D
:1047900018312068884244D0F4493031206888427A
:1047A0003FD0F2494831206888423AD0EF49603121
:1047B0002068884235D0ED4978312068884230D071
:1047C000EA499031206888422BD0E849A831206816
:1047D000884226D0E6492068884222D0E449183130
:1047E000206888421DD0E24930312068884218D0C4
:1047F000DF4948312068884213D0DD4960312068A4
:1048000088420ED0DA4978312068884209D0D849E8
:1048100090312068884204D0D549A8312068884268
:1048200001D1012000E0002000287DD094F85C0038
:1048300000F01F01082088403840002868D0CB498C
:104840002068884249D0C94918312068884244D03C
:10485000C6493031206888423FD0C4494831206879
:1048600088423AD0C14960312068884235D0BF497A
:1048700078312068884230D0BC4990312068884225
:104880002BD0BA49A8312068884226D0B849206880
:10489000884222D0B6491831206888421DD0B449D8
:1048A00030312068884218D0B149483120688842A8
:1048B00013D0AF496031206888420ED0AC497831BE
:1048C0002068884209D0AA4990312068884204D0E3
:1048D000A749A8312068884204D12068006800F008
:1048E000040003E02068006800F0080080B1206840
:1048F000006820F004002168086094F85C0000F073
:104900001F0108208840B060606D40F001006065C4
:1049100094F85C0000F01F01012088403840E8B3A3
:1049200092492068884200E0B7E24BD08F491831A5
:104930002068884246D08D4930312068884241D075
:104940008A494831206888423CD0884960312068D3
:10495000884237D0854978312068884232D08349EF
:104960009031206888422DD08049A8312068884243
:1049700028D07F492068884224D07D49183120689A
:1049800088421FD07A493031206888421AD078494D
:1049900048312068884215D0754900E026E0603132
:1049A000206888420ED0724978312068884209D048
:1049B0006F4990312068884204D06D49A831206841
:1049C000884204D12068406900F0800002E020683D
:1049D0000068002050B194F85C0000F01F01012035
:1049E0008840B060606D40F00200606594F85C0043
:1049F00000F01F01042088403840E8B35B4920687C
:104A000088424BD0594918312068884246D05749CE
:104A100030312068884241D054494831206888426A
:104A20003CD0524960312068884237D04F497831B4
:104A30002068884232D04D499031206888422DD07C
:104A40004A49A8312068884228D0494920688842CC
:104A500024D047491831206888421FD0444930315A
:104A6000206888421AD0424948312068884215D0CF
:104A70003F496031206800E024E088420ED03C4984
:104A800078312068884209D03949903120688842BD
:104A900004D03749A8312068884204D120680068D2
:104AA00000F0020002E020680068002050B194F895
:104AB0005C0000F01F0104208840B060606D40F091
:104AC0000400606594F85C0000F01F01102088402D
:104AD0003840E8B325492068884251D0234918312D
:104AE000206888424CD0214930312068884247D024
:104AF0001E4948312068884242D01C4960312068F4
:104B000088423DD0194978312068884238D0174909
:104B100090312068884233D01449A83120688842F7
:104B20002ED01349206888422AD0114918312068B4
:104B3000884225D00E4930312068884220D00C4967
:104B40004831206888421BD009496031206800E064
:104B50004DE0884214D006497831206888420FD051
:104B600003499031206805E0C8000024100002408D
:104B700010040240884203D0FE492068884204D1D4
:104B80002068006800F0080003E02068006800F07A
:104B9000040060B394F85C0000F01F01102088400E
:104BA000B0602068006800F4802080B12068006850
:104BB00000F4002028B9206CC8B12046216C884739
:104BC00015E0A06C98B12046A16C88470FE02068E2
:104BD000006800F4807028B92068006820F00800A0
:104BE00021680860206C10B12046216C884794F839
:104BF0005C0000F01F0120208840384000287DD054
:104C0000DD492068884249D0DB4918312068884254
:104C100044D0D9493031206888423FD0D649483104
:104C2000206888423AD0D44960312068884235D023
:104C3000D14978312068884230D0CF4990312068FE
:104C400088422BD0CC49A8312068884226D0C94957
:104C5000A8392068884221D0C64990392068884206
:104C60001CD0C44978392068884217D0C1496039BE
:104C70002068884212D0BF494839206888420DD048
:104C8000BC4930392068884208D0BA4918392068B0
:104C9000884203D0B7492068884204D12068006860
:104CA00000F0100003E02068006800F0020028B364
:104CB00094F85C0000F01F0120208840B06094F858
:104CC000350004282DD12068006820F016002168E6
:104CD00008602068406920F0800021684861206CED
:104CE00008B9A06C28B12068006820F0080021688D
:104CF000086094F85C0000F01F0100E03FE03F20F6
:104D00008840B060012084F8350000BF002084F89E
:104D1000340000BF206D10B12046216D8847BDE8EA
:104D2000F88F2068006800F4802080B12068006857
:104D300000F4002028B9606C08B32046616C8847F5
:104D40001DE0E06BD8B12046E16B884717E0206892
:104D5000006800F4807068B92068006820F01000D6
:104D600021680860012084F8350000BF002084F825
:104D7000340000BFE06B10B12046E16B8847606DE6
:104D800000287AD0606D00F00100E8B3042084F8B8
:104D900035007949206888424BD07749183120681E
:104DA000884246D0744930312068884241D07249E7
:104DB0004831206888423CD06F4960312068884281
:104DC00037D06D4978312068884232D06A499031B5
:104DD000206888422DD06849A8312068884228D0B0
:104DE0006449A8392068884223D0624990392068F4
:104DF00088421ED05F4978392068884219D05D49C1
:104E000060392068884200E040E012D059494839B2
:104E1000206888420DD0574930392068884208D030
:104E2000544918392068884203D052492068884282
:104E300006D12068006820F001002168086005E0C4
:104E40002068006820F001002168086000BF009819
:104E5000401C0090504500D905E02068006800F033
:104E600001000028F3D100BF2068006800F00100B5
:104E700020B1032084F8350003E00DE0012084F820
:104E8000350000BF002084F8340000BFE06C00282B
:104E900002D02046E16C8847D9E138492068884231
:104EA00022D036491431206888421DD03349283138
:104EB0002068884218D031493C312068884213D09C
:104EC0002E495031206888420ED02C496431206828
:104ED000884209D0294978312068884204D027497E
:104EE0008C312068884201D1012000E00020002898
:104EF000D2D02068056894F85C0000F01F010420FF
:104F0000884000EA0900D8B305F00400C0B394F863
:104F10005C0000F01F0104208840C8F8040005F47C
:104F2000004080B105F4803030B9A06C0028B3D0C7
:104F30002046A16C88478AE1206C0028ACD020462E
:104F4000216C884783E105F02000E8BB0A4920680E
:104F5000884253D008491831206888424ED006490B
:104F600030312068884249D003494831206888425E
:104F700044D006E0B8040240100002400854025831
:104F80004FE0B44960312068884237D0B149783168
:104F90002068884232D0AF499031206888422DD0B5
:104FA000AC49A8312068884228D0AB4920688842A3
:104FB00024D0A9491831206888421FD0A649303131
:104FC000206888421AD000E025E0A34948312068D3
:104FD000884213D0A0496031206888420ED09E4993
:104FE00078312068884209D09B49903120688842F6
:104FF00004D09949A8312068884206D12068006809
:1050000020F008002168086005E02068006820F0B2
:10501000040021680860206C10B32046216C88478A
:1050200015E194F85C0000F01F010220884000EABE
:105030000900E8B305F00200D0B394F85C0000F07A
:105040001F0102208840C8F8040005F4004070B138
:1050500005F4803028B9606C10B12046616C884737
:10506000F5E0E06BF0B32046E16B8847EFE005F038
:105070002000C0BB7749206888424ED0754918315E
:105080002068884249D0734930312068884244D032
:1050900070494831206888423FD06E4960312068AD
:1050A00088423AD06B4978312068884235D000E098
:1050B0004EE068499031206888422ED06549A83179
:1050C0002068884229D064492068884225D06249F6
:1050D00018312068884220D05F49303120688842EA
:1050E0001BD001E06EE02DE05B494831206888422A
:1050F00013D059496031206888420ED05649783122
:105100002068884209D0544990312068884204D0F0
:105110005149A8312068884206D12068006820F0F3
:1051200014002168086005E02068006820F00A008B
:1051300021680860012084F8350000BF002084F851
:10514000340000BFE06BE8B32046E16B88477EE0A7
:1051500094F85C0000F01F010820884000EA090074
:1051600080B305F0080068B33A49206888424BD004
:10517000384918312068884246D036493031206895
:10518000884241D033494831206888423CD0314977
:1051900060312068884237D02E49783120688842B3
:1051A00032D02C499031206888422DD02949A8312D
:1051B0002068884228D028492068884224D026497F
:1051C000183100E043E0206888421DD02249303188
:1051D0002068884218D0204948312068884213D07E
:1051E0001D496031206888420ED01B497831206803
:1051F000884209D0184990312068884204D0164965
:10520000A8312068884206D12068006820F01C0080
:105210002168086005E02068006820F00E00216821
:10522000086094F85C0000F01F0101208840C8F875
:1052300004000120606584F8350000BF002084F878
:10524000340000BFE06C10B12046E16C884700BF1D
:1052500065E5000010000240100402402DE9F04115
:10526000044601F0F9FC804614B90120BDE8F08144
:10527000FE492068884249D0FC491831206888429C
:1052800044D0FA493031206888423FD0F74948314C
:10529000206888423AD0F54960312068884235D08C
:1052A000F24978312068884230D0F0499031206846
:1052B00088422BD0ED49A8312068884226D0EC499D
:1052C0002068884222D0EA491831206888421DD0DF
:1052D000E74930312068884218D0E54948312068D4
:1052E000884213D0E2496031206888420ED0E049FC
:1052F00078312068884209D0DD49903120688842A1
:1053000004D0DB49A8312068884201D1012000E0A7
:105310000020002873D0606A00B100BF022084F82A
:10532000350000BF002084F8340000BFCF4920685A
:10533000884249D0CD4918312068884244D0CB49B1
:105340003031206888423FD0C849483120688842BF
:105350003AD0C64960312068884235D0C349783197
:105360002068884230D0C1499031206888422BD0D3
:10537000BE49A8312068884226D0BD4920688842AD
:1053800022D0BB491831206888421DD0B84930313D
:105390002068884218D0B64948312068884213D026
:1053A000B3496031206888420ED0B1497831206815
:1053B000884209D0AE4990312068884204D0AC4977
:1053C000A8312068884206D12068006820F00100DA
:1053D0002168086005E02068006820F0010021686D
:1053E00008600DE001F038FCA0EB0800052807D9A3
:1053F00020206065032084F83500012036E769E04D
:105400002068006800F001000028EBD120680568E2
:1054100098480540D4E902010843216908436169BD
:105420000843A1690843E1690843216A0843054329
:10543000606A042803D1D4E90B010843054360687E
:10544000292802D360682E2817D960683F2802D324
:105450006068422811D96068472802D360684828EC
:105460000BD960684F2802D36068522805D960685C
:10547000742804D36068772801D8012000E0002058
:1054800008B145F48015206805602068456925F05D
:105490000705606A0543606A04280DD1A06A0543C8
:1054A000E06A48B12046FDF7E3FB28B14020606583
:1054B000012084F83500D9E6206845612046FDF7D3
:1054C000B3FA064694F85C0000F01F013F208840C4
:1054D000B0609EE068492068884222D06649143155
:1054E000206888421DD0644928312068884218D03D
:1054F00061493C312068884213D05F4950312068AF
:1055000088420ED05C4964312068884209D05A49EB
:1055100078312068884204D057498C31206888420D
:1055200001D1012000E00020E0B353492068884207
:1055300022D051491431206888421DD04E4928316B
:105540002068884218D04C493C312068884213D0EA
:1055500049495031206888420ED04749643120685B
:10556000884209D0444978312068884204D04249B1
:105570008C312068884201D1012000E0002000B178
:1055800000BF022084F8350000BF002084F83400FA
:1055900000BF2068056839480540A068402802D14E
:1055A000102106E02EE0A068802801D1C10100E0B2
:1055B0000021E06841EAD001206941EAD001606938
:1055C00041EAD001A06941EAD001E06941EAD00195
:1055D000206A41EA101005432068056026492068CA
:1055E000401A1421B0FBF1F08000E0652046FDF781
:1055F0001BFA074694F85C0000F01F010120884068
:10560000786006E040206065032084F835000120C2
:105610002CE61649206888427AD01449183120684F
:10562000884275D0114930312068884270D00F49C6
:105630004831206888426BD00C496031206888422C
:1056400066D00A4978312068884261D00749903194
:10565000206888425CD00549A8312068884257D02C
:1056600003492068884253D0014909E010000240F4
:10567000100402403F8010FE085402580F00FEFF45
:1056800018312068884243D03749206888423FD08B
:1056900035491831206888423AD033493031206882
:1056A000884235D0304948312068884230D02E4970
:1056B0006031206888422BD02B497831206888429D
:1056C00026D02A492068884222D0284914312068EF
:1056D00088421DD0254928312068884218D02349A6
:1056E0003C312068884213D02049503120688842DC
:1056F0000ED01E4964312068884209D01B49783198
:105700002068884204D019498C312068884201D130
:10571000012000E0002000B32046FDF7FBF9A0685F
:10572000802801D1002060602079216E0860D4E9D2
:1057300019104860606860B16068082809D8204680
:10574000FDF74AFA0020E16E0860D4E91C104860B9
:1057500003E00020E06620676067002060650120AC
:1057600084F83500002081E54004024008540258C6
:105770002DE9F04104460D4616461F464FF000083D
:1057800014B90120BDE8F08100BF94F8340001286D
:1057900001D10220F6E7012084F8340000BF94F81C
:1057A000350001287ED1022084F835000020606594
:1057B000E4492068884249D0E2491831206888428B
:1057C00044D0E0493031206888423FD0DD4948313B
:1057D000206888423AD0DB4960312068884235D061
:1057E000D84978312068884230D0D6499031206835
:1057F00088422BD0D349A8312068884226D0D2498C
:105800002068884222D0D0491831206888421DD0B3
:10581000CD4930312068884218D0CB4948312068C2
:10582000884213D0C8496031206888420ED0C649EA
:1058300078312068884209D0C34990312068884275
:1058400004D0C149A8312068884206D12068006888
:1058500020F001002168086005E02068006820F061
:105860000100216808603B46324629462046FDF784
:1058700057FAB449206888424BD0B24918312068A1
:10588000884246D0AF4930312068884241D0AD4986
:105890004831206888423CD0AA496031206888425B
:1058A00037D000E042E1A74978312068884230D003
:1058B000A4499031206888422BD0A249A8312068A1
:1058C000884226D0A0492068884222D09E491831BB
:1058D000206888421DD09C4930312068884218D009
:1058E000994948312068884213D09749603120682F
:1058F00088420ED0944978312068884209D0924974
:1059000090312068884204D08F49A83120688842AD
:1059100001D1012000E0002080B12068006820F063
:105920001E0040F0160021680860206CB0B12068AD
:10593000006840F00800216808600FE020680068F7
:1059400020F00E0040F00A0021680860206C28B1A9
:105950002068006840F004002168086079492068E8
:10596000884270D077491831206888426BD07549D9
:1059700030312068884266D07249483120688842B8
:1059800061D070496031206888425CD06D497831BF
:105990002068884257D06B4990312068884252D0A5
:1059A0006849A831206888424DD0674920688842FC
:1059B00049D0654918312068884244D06249303165
:1059C000206888423FD060494831206888423AD0F8
:1059D0005D4960312068884235D05B497831206864
:1059E000884230D058499031206888422BD056499F
:1059F000A8312068884226D054492068884222D0A5
:105A000052491431206888421DD0504928312068FD
:105A1000884218D04D493C312068884213D04B4908
:105A20005031206888420ED048496431206888424D
:105A300009D0464978312068884204D043498C31E6
:105A40002068884201D1012000E0002090B1206E42
:105A5000006800F4803028B1206E006840F4807047
:105A6000216E0860E06E28B1E06E006840F480703E
:105A7000E16E086033492068884249D031491831C5
:105A80002068884244D02F493031206888423FD076
:105A90002C494831206888423AD02A496031206830
:105AA000884235D0274978312068884230D025494E
:105AB0009031206888422BD02249A8312068884242
:105AC00026D021492068884222D01F4918312068F9
:105AD00088421DD01C4930312068884218D01A49AC
