:020000040800F2
:10000000085202247504000807E90008B5B7000883
:1000100001E80008BB0F0008D961010800000000DA
:10002000000000000000000000000000B503000810
:10003000A126000800000000110400082116010894
:100040009304000893040008930400089304000834
:100050009304000893040008930400089304000824
:10006000930400089304000893040008711E00081C
:10007000811E0008911E0008A11E0008B11E000884
:10008000930400089304000893040008052A00085C
:10009000252A0008152A0008352A000893040008BC
:1000A00093040008930400089304000893040008D4
:1000B0001D18010893040008930400089304000825
:1000C00093040008930400089304000893040008B4
:1000D000FD0E0108CD350108D5360108DD370108D0
:1000E0009304000893040008000000002D18010884
:1000F000930400089304000893040008C11E00083C
:100100009304000893040008930400089304000873
:100110009304000869280108930400089304000868
:10012000D11E0008930400089304000893040008FB
:10013000E11E0008930400089304000893040008DB
:1001400000000000000000000000000000000000AF
:100150009304000893040008930400089304000823
:100160009304000893040008930400089304000813
:100170009304000829EF0008930400080000000021
:1001800093040008930400089304000893040008F3
:1001900093040008930400089304000893040008E3
:1001A0009304000893040008930400080000000072
:1001B00093040008930400089304000893040008C3
:1001C00093040008930400080000000000000000F1
:1001D0000000000000000000930400080000000080
:1001E000000000000000000000000000000000000F
:1001F00000000000000000009304000893040008C1
:100200009304000893040008000000009304000811
:100210009304000893040008930400089304000862
:100220009304000800000000930400080000000090
:1002300093040008930400080000000093040008E1
:100240009304000893040008930400089304000832
:100250009304000893040008930400089304000822
:100260009304000893040008930400089304000812
:1002700093040008930400089304000800000000A1
:1002800093040008930400089304000893040008F2
:100290000000000093040008930400080000000020
:1002A0000000000093040008930400089304000871
:1002B000930400089304000893040008452A0008EA
:1002C000552A0008930400089304000800F002F87F
:1002D00000F060F80AA090E8000C82448344AAF180
:1002E0000107DA4501D100F055F8AFF2090EBAE87E
:1002F0000F0013F0010F18BFFB1A43F0010318475A
:10030000D09E0100F09E01000A444FF0000C10F84E
:10031000013B13F0070408BF10F8014B1D1108BF83
:1003200010F8015B641E05D010F8016B641E01F823
:10033000016BF9D113F0080F1EBF10F8014BAD1C73
:100340000C1B09D16D1E58BF01F801CBFAD505E091
:1003500014F8016B01F8016B6D1EF9D59142D6D3EB
:10036000704700000023002400250026103A28BF13
:1003700078C1FBD8520728BF30C148BF0B60704717
:100380001FB518F0EDFD9DE8030000F043FA1FBD16
:1003900010B510BD00F0AAFA1146FFF7F1FF17F0F3
:1003A000A9FB00F0C8FA03B4FFF7F2FF03BC00F0AA
:1003B000F9FA00002C4B19680868B0E8F04F80F398
:1003C0000988BFF36F8F4FF0000080F311887047EA
:1003D0000000000008480068006880F308884FF0BB
:1003E000000080F3148862B661B6BFF34F8FBFF38D
:1003F0006F8F00DF00BF00BF08ED00E0DFF80C00EA
:10040000016841F470010160704700BF88ED00E0B1
:10041000EFF30980BFF36F8F134B1A681EF0100FB4
:1004200008BF20ED108A20E9F04F106009B44FF0AA
:10043000500080F31188BFF34F8FBFF36F8F18F018
:10044000F1F94FF0000080F3118809BC19680868C1
:10045000B0E8F04F1EF0100F08BFB0EC108A80F328
:100460000988BFF36F8F7047D0000024EFF3058039
:10047000704700000A4880470A4880470A480047FA
:10048000FEE7FEE7FEE7FEE7FEE7FEE7FEE7FEE744
:10049000FEE7FEE705480649064A074B704700009D
:1004A000E129000811170108CD02000808F2012413
:1004B00008520224082202240822022470B50646AB
:1004C00000F08CF9056806F10B0020F00704B44237
:1004D0009CBF002070BD2B466A68BAB11068A0426C
:1004E00010D304F1080188423CBF5068586007D31C
:1004F0005168101941601168091B0160586014604F
:10050000101D70BD13465268002AE7D121462846C7
:1005100000F06CF90028DED170BD70B50446051FEF
:1005200000F05CF90068002C14BF446870BD002C1A
:1005300018BFAC423CBF20466468F8D301680A1873
:10054000AA4218BF456003D12A68054611440160DC
:1005500028684119A1421CBF6C6070BD6168696068
:1005600021680844286070BD53EA020C00F06980DD
:100570002DE9F04B4FF00006002B1FBFB3FA83F5B7
:1005800003FA05F424FA05F65E4012BF1643B2FAE8
:1005900082F502FA05F4C5F120051EBF22FA05FC1A
:1005A00044EA0C04203556EA044C4FEA144418BFC0
:1005B000641C4FF000084FF00009904271EB030CEF
:1005C00039D3002919BFB1FA81F701FA07F6B0FA59
:1005D00080F700FA07F6C7F120071EBF20FA07FCD4
:1005E00046EA0C062037B6FBF4FCA7EB0507103FE4
:1005F00007F01F0BCBF120060CFA0BFB2CFA06F6CA
:1006000044BFB3460026202FA4BF5E464FF0000B28
:100610005BEA060C08BF4FF0010B19EB0B09ABFBB3
:10062000027C48EB0608C01B06FB02CC0BFB03CC8C
:1006300071EB0C01C1E70B46024641464846BDE856
:10064000F08B13B54FF000004FF00001AFF30080C6
:10065000BDE81C407047032A40F2308010F0030CC4
:1006600000F0158011F8013BBCF1020F624498BF05
:1006700011F801CB00F8013B38BF11F8013BA2F1A2
:10068000040298BF00F801CB38BF00F8013B11F01D
:10069000030300F02580083AC0F0088051F8043BBD
:1006A000083A51F804CBA0E80810F5E7121D5CBF2A
:1006B00051F8043B40F8043BAFF30080D20724BF5D
:1006C00011F8013B11F801CB48BF11F8012B24BFF1
:1006D00000F8013B00F801CB48BF00F8012B704740
:1006E00010B5203AC0F00B80B1E81850203AA0E8CD
:1006F0001850B1E81850A0E81850BFF4F5AF5FEA01
:10070000027C24BFB1E81850A0E8185044BF18C9B3
:1007100018C0BDE810405FEA827C24BF51F8043B5A
:1007200040F8043B08BF7047D20728BF31F8023BAE
:1007300048BF11F8012B28BF20F8023B48BF00F842
:10074000012B70474FF000020429C0F0128010F016
:10075000030C00F01B80CCF1040CBCF1020F18BF9D
:1007600000F8012BA8BF20F8022BA1EB0C0100F030
:100770000DB85FEAC17C24BF00F8012B00F8012B03
:1007800048BF00F8012B70474FF0000200B5134638
:1007900094469646203922BFA0E80C50A0E80C50A1
:1007A000B1F12001BFF4F7AF090728BFA0E80C5052
:1007B00048BF0CC05DF804EB890028BF40F8042B4B
:1007C00008BF704748BF20F8022B11F0804F18BFB8
:1007D00000F8012B7047704770477047004870471A
:1007E000B0F10124704770477047704738B5044630
:1007F0000A4600206946AFF30080002808BF38BDD4
:1008000002460099204600F04FF8012038BD012033
:1008100000F064B8F8B5AFF30080054600200C4640
:10082000102000BF0646A819A0420DD932466946DD
:100830000020AFF30080070008BF00F04FF80098D9
:10084000A04218BF0546C419FFF7C8FF0560074658
:10085000F01D20F007004619284600F00AF8B442BF
:1008600008BFF8BDA21B31463868BDE8F84000F06B
:100870001BB800210160C0E90110704710207047CB
:1008800010B500F00DF8006810BD10B5044600F07A
:1008900007F8046010BD000000487047A8F101246B
:1008A00000487047A8F10124034640688C460028A0
:1008B00018BF88423CBF03464068F8D31868184404
:1008C000884207D00CF1030020F00700001D411AF8
:1008D000521A0146081D0A60FFF71FBE10B500F04E
:1008E00039F8BDE8104000F02FB870477546FFF7A3
:1008F000D3FFAE4605006946534620F00700854603
:1009000018B020B5FFF7C6FDBDE820404FF0000647
:100910004FF000074FF000084FF0000B21F00701E7
:10092000AC46ACE8C009ACE8C009ACE8C009ACE82A
:10093000C0098D46704710B50446AFF300802046CD
:10094000BDE81040FFF72FBD002801D000F02AB805
:100950007047000010B5012805D0002103A000F069
:1009600027F8012010BD09A1F8E7000053494752BC
:10097000544D454D3A204F7574206F66206865616F
:1009800070206D656D6F7279000000003A20486537
:100990006170206D656D6F727920636F7272757012
:1009A0007465640001491820ABBEFEE72600020012
:1009B00070B505460C460A2000E06D1C00F011F8E9
:1009C00035B128780028F8D102E0641C00F009F85D
:1009D00014B120780028F8D1BDE870400A20AFF3A8
:1009E000008008B569468DF800000320ABBE08BD45
:1009F00070B505460C4600260DB1022C00D870BD1E
:100A0000A11E06480288284602F0AEFA0646A01E3D
:100A10002E54310A601E295400BFF0E73C06002422
:100A200010B501221146024805F00AFC10BD000075
:100A30000008025810B500220121024805F000FC10
:100A400010BD00000008025810B50122082102481C
:100A500005F0F6FB10BD00000008025810B500229A
:100A60000821024805F0ECFB10BD00000008025808
:100A700010B50446FFF7DEFF922000F0A5F906222C
:100A80009549122000F080F9FFF7CAFF924840789C
:100A9000000200B29049097808439049088008464E
:100AA000B0F9000000EE100AB8EEC00A8C48D0ED94
:100AB000000A20EE200AD4ED080A20EE200A84ED78
:100AC000000A8548C078000200B28349897808434B
:100AD000824908800846B0F9000000EE100AB8EE1E
:100AE000C00A7F48D0ED000A20EE200AD4ED080AA3
:100AF00020EE200A84ED010A77484079000200B216
:100B0000754909790843754908800846B0F900001D
:100B100000EE100AB8EEC00A7148D0ED000A20EECF
:100B2000200AD4ED080A20EE200A84ED020AFFF71D
:100B300095FF08226849002000F026F9FFF784FF9E
:100B4000654800780F284FD166480078F0B36248B6
:100B5000C078000200B26049897808435F49088084
:100B600094ED090A0846B0F9000000EE900AF8EE8C
:100B7000E00A5D4890ED001A10EE810A84ED030A48
:100B800055484079000200B2534909790843534956
:100B9000088094ED0A0A0846B0F9000000EE900AB9
:100BA000F8EEE00A504890ED001A10EE810A84ED4C
:100BB000040A4948C079000200B2474989790843CC
:100BC0004649088094ED0B0A084600E00DE0B0F9B4
:100BD000000000EE900AF8EEE00A434890ED001A9B
:100BE00010EE810A84ED050A44E03B48C07800021B
:100BF00000B2394989780843384908800846B0F975
:100C0000000000EE100AB8EEC00A3748D0ED000A26
:100C100020EE200A84ED030A2F484079000200B23A
:100C20002D49097908432D4908800846B0F900008C
:100C300000EE100AB8EEC00A2B48D0ED000A20EEF4
:100C4000200A84ED040A2448C079000200B2224937
:100C500089790843214908800846B0F9000000EE70
:100C6000100AB8EEC00A2048D0ED000A20EE200A93
:100C700084ED050AFFF7DEFEA22000F0A5F80222AF
:100C80001549222000F080F8FFF7CAFE12480078CC
:100C9000C0001149497840EA6110104908800846AF
:100CA000B0F90000B0F5806F05DB08460088A0F5BC
:100CB000006000B208800948B0F9000000EE100A98
:100CC000F8EEC00AB4EE001AB3EE070A00EE810A8D
:100CD00084ED070A10BD0000EE060024F60600248D
:100CE000B0060024C0060024B406002470B50446F3
:100CF0000D461C48046000201B49087016F016FAC7
:100D00001949097808431849087016F0C5FA1649B8
:100D100009780843144908701DB1144800F08AFA94
:100D20001CE09FED130A114880ED090A9FED110A9E
:100D300080ED0A0A9FED100A80ED0B0A9FED0F0A65
:100D400080ED0C0A90ED0C0ADFED0D0A80EE801AA2
:100D500080ED081A9FED0B0A80ED060A0248007824
:100D600070BD0000F8060024BA0600242CF001240F
:100D70008A0B843A5979833BA8D2A93B04F81D41D8
:100D800011C71C410000204270B506460C461546AE
:100D900046F0800000F018F806E0552000F014F846
:100DA0002070641C681EC5B2002DF6D170BD70B5F0
:100DB00004460D4644F0800000F006F8552000F08F
:100DC00003F8287070BD000001B582B04FF47A704E
:100DD000012301AA02A900900348006808F032FD2F
:100DE0009DF804000EBD0000F806002470B505460D
:100DF0000C462846FFF7E8FF2046FFF7E5FF70BDE9
:100E000010B50421064809F087FB322105480EF091
:100E100035FD0422044903480EF002FD10BD000018
:100E2000880D00241CCE012430CE012470B5054667
:100E30000E46002405E005EB840107480EF0F3FCA4
:100E4000641CB442F7DB0023022219460348006801
:100E500017F072FE70BD00001CCE0124300000248B
:100E6000D2ED020A92ED021AB6EE000A00EEC10AB5
:100E7000D2ED030A92ED031A00EEC10AD0ED000A8A
:100E800020EE200AD2ED010A92ED021A60EE810AEC
:100E900092ED001AD2ED031A41EE610A90ED011AAB
:100EA00000EE810AD2ED010A92ED031A60EE810A8A
:100EB00092ED001AD2ED021A41EE210A90ED021ACB
:100EC00000EE810AF0EE000A20EE200A81ED000A11
:100ED00092ED010AD2ED020A20EE200AD2ED000ABC
:100EE00092ED031A00EE810AD0ED000A60EE200AAE
:100EF00092ED011AD2ED011AB6EE000A01EE610A76
:100F0000D2ED031A92ED032AB0EE401A01EEC21A96
:100F1000D0ED011AB0EE600A01EE210AD2ED020A0C
:100F200092ED031A60EE810A92ED001AD2ED011AD9
:100F300041EE610A90ED021A00EE810AF0EE000A1D
:100F400020EE200A81ED010A92ED010AD2ED030A9A
:100F500020EE200AD2ED000A92ED021A00EEC10A3C
:100F6000D0ED000A20EE200AD2ED020A92ED031A1B
:100F700060EE810A92ED001AD2ED011A41EE210ACB
:100F800090ED011A00EE810A92ED011AD2ED011ADC
:100F9000F6EE000A41EE610A92ED021AD2ED021A53
:100FA00041EE610A90ED021A00EE810AF0EE000AAD
:100FB00020EE200A81ED020A704700BFFEE700BF65
:100FC00000BF00BF7047000070B505460C4628689A
:100FD000A0F24110C8B921460D480CF009FF0C20C1
:100FE00001F040FC2078882805D1012009490870CB
:100FF0000020094908702078802805D10120064981
:10100000087000200349087000E000BF00BF70BDF9
:10101000ACBE0124D8020024D9020024F8B505464C
:101020000C462868A0F20120D0B1012831D1A07966
:1010300040B200906079267940EA062003B2E07859
:10104000A67840EA062002B26078267840EA0620B8
:1010500001B211480DF050FC0A2001F003FC19E028
:10106000A07940B200906079267940EA062003B268
:10107000E078A67840EA062002B26078267840EA56
:10108000062001B205480DF037FC0B2001F0EAFB09
:1010900000E000BF00BFF8BDB8C80124D0C90124DA
:1010A00000B589B000200190029002200390012039
:1010B000049000200590069001A9264804F029F923
:1010C00000200346022211460090224804F075F9E0
:1010D000002201211F4804F049F8012211461D4851
:1010E00004F0E1F81B4804F08EFF01A91A4804F04F
:1010F00010F900200346022211460090164804F021
:101100005CF901221146144804F0CDF800220121B7
:10111000114804F02BF8104804F075FF01A90F489E
:1011200004F0F7F8002003460222114600900B4815
:1011300004F043F901221146084804F0B4F80022F3
:101140000121064804F012F8044804F05CFF09B0DD
:1011500000BD000098090024380A0024D80A0024A1
:101160000346042B15D007DC7BB1012B0ED0022BDC
:101170000DD0032B12D10BE0202B0BD0212B0AD04A
:10118000222B09D0232B09D107E008E007E006E075
:1011900005E004E003E002E001E000E000BF00BF82
:1011A000002070470020704710B500220449054810
:1011B00012F0B7FD0449034812F0A4FD002010BD51
:1011C0001C200024401300241C18002470B5044681
:1011D0000D462146054812F095FD044812F05EFDCB
:1011E0002046296815F072F8002070BD40130024D5
:1011F00010B503460C460021084610BD2DE9F0410C
:1012000004460D4600260A48D0F8BC72D7F81402EE
:1012100010B10120BDE8F0812A462146044812F0B1
:1012200080FD034812F030FE06463046F2E700002B
:101230004013002470B52DED048B88B004460020C7
:101240000690079001F066F9FE4880ED000A00BFA5
:1012500001F060F9FB48D0ED000A30EE600AF2EED2
:10126000040AB4EEE00AF1EE10FA14DD9FEDF60A7E
:1012700084ED090A9FEDF50A84ED0A0A9FEDF40A50
:1012800084ED0B0A9FEDF30A84ED0C0A9FEDF20A40
:1012900084ED060A57E29FEDF10A01F0F7F89FEDA1
:1012A000F00A84ED0C0A9FEDEE0A84ED090A9FED29
:1012B000EC0A84ED0A0A9FEDEA0A84ED0B0A002687
:1012C00073E1FFF7B7FB9220FFF77EFD062206A928
:1012D0001220FFF759FDFFF7A3FB9DF8190000024C
:1012E00000B29DF8181040EA010500EE105AB8EE61
:1012F000C00ADC48D0ED000A20EE200A84ED000A86
:101300009DF81B00000200B29DF81A1040EA01058A
:1013100000EE105AB8EEC00AD248D0ED000A20EE16
:10132000200A84ED010A9DF81D00000200B29DF81C
:101330001C1040EA010500EE105AB8EEC00AC94878
:10134000D0ED000A20EE200A84ED020AD4ED000A56
:1013500060EEA00A94ED011AD4ED011A41EE210AC3
:1013600094ED021AD4ED021A41EE210AB0EE600AA1
:1013700015F04AFCB0EE408A94ED0C0A30EE080AF3
:1013800084ED0C0AFFF76AFB082206A90020FFF78C
:10139000FBFCFFF759FB9DF818000F2850D19DF872
:1013A0001B00000200B29DF81A1040EA010500EE91
:1013B000105AB8EEC00AAC48D0ED000A20EE200A60
:1013C00084ED030A94ED090AD4ED030A30EE200AF5
:1013D00084ED090A9DF81D00000200B29DF81C1062
:1013E00040EA010500EE105AB8EEC00A9E48D0ED62
:1013F000000A20EE200A84ED040A94ED0A0AD4EDD6
:10140000040A30EE200A84ED0A0A9DF81F0000024B
:1014100000B29DF81E1040EA010500EE105AB8EE29
:10142000C00A9148D0ED000A20EE200A84ED050A9A
:1014300094ED0B0AD4ED050A30EE200A84ED0B0A78
:1014400006BBF0EE488AB0EE489A002017E004F19F
:101450000C0101EB800191ED000A03A901EB800171
:1014600081ED000A04F10C0101EB800191ED000A0D
:10147000694601EB800181ED000A411CC8B20328D6
:10148000E5DB49E0B4EEE88AF1EE10FA01DDF0EEBA
:10149000488AB4EEC98AF1EE10FA01D2B0EE489A49
:1014A000002037E004F10C0101EB800191ED000A0E
:1014B00003A901EB8001D1ED000AB4EEE00AF1EEE0
:1014C00010FA0ADD04F10C0101EB800191ED000A34
:1014D00003A901EB800181ED000A04F10C0101EB8D
:1014E000800191ED000A694601EB8001D1ED000A0F
:1014F000B4EEE00AF1EE10FA0AD204F10C0101EBAD
:10150000800191ED000A694601EB800181ED000A3E
:10151000411CC8B20328C5DB38EEC90A534880ED28
:10152000000A002012E003A901EB800191ED000AFE
:10153000694601EB8001D1ED000A30EE600A4C49AA
:1015400001EB800181ED000A411CC8B20328EADBEF
:10155000464890ED000AF6EE000AB4EEE00AF1EE1D
:1015600010FA1BDC424890ED000ADFED420AB4EEAF
:10157000E00AF1EE10FA11DC90ED010ADFED3D0A10
:10158000B4EEE00AF1EE10FA08DC90ED020ADFEDAD
:10159000390AB4EEE00AF1EE10FA00DD0AE09FED40
:1015A000360A00F073FF701C86B234480088864209
:1015B000FFF687AE00BFD4ED0C0A3048008800EE7D
:1015C000100AB8EE400A80EE801A84ED0C1A002052
:1015D00015E004F1240101EB8001D1ED000A274957
:1015E000098800EE101AB8EE400A80EE801A04F165
:1015F000240101EB800181ED001A411CC8B20328CF
:10160000E7DBFFF717FAA220FFF7DEFB022206A9AD
:101610002220FFF7B9FBFFF703FA9DF81800C0007E
:101620009DF8191040EA6115B5F5806F02DBA5F54C
:10163000006005B200EE105AF8EEC00AB4EE001ACF
:101640001EE00000E80600248A0B843A5979833BA7
:10165000A8D2A93B04F81D41000020420AD7A33BB1
:1016600000000000B0060024B4060024BC060024DC
:1016700020F001249A99193E6F12033AEC060024D7
:10168000B3EE070A00EE810A84ED060A34480088AA
:10169000401C00B232490880324890ED000AF6EE54
:1016A000000AB4EEE00AF1EE10FA3FF7D1AD94ED86
:1016B0000C0ADFED2D0A30EE600AB0EEC00AF6EE3D
:1016C000000AB4EEE00AF1EE10FAEEDC274890EDE5
:1016D000000A5FED180AB4EEE00AF1EE10FAE4DC5D
:1016E00090ED010A5FED1D0AB4EEE00AF1EE10FA8A
:1016F000DBDC90ED020A5FED210AB4EEE00AF1EEC8
:1017000010FAD2DC94ED090AB0EEC00ADFED180A37
:10171000B4EEE00AF1EE10FAC7DC94ED0A0AB0EE7E
:10172000C00ADFED130AB4EEE00AF1EE10FABCDCF9
:1017300094ED0B0AB0EEC00ADFED0D0AB4EEE00A3C
:10174000F1EE10FAB1DC00BF94ED0C0ADFED090AEE
:1017500080EE801A84ED081A08B0BDEC048B70BDD1
:10176000C2060024BC060024CDCC1C4120F001247C
:101770000AD7233CC3F51C4110B54448007BC0F395
:101780004000C0B90020424981F828009FED410A7D
:10179000084680ED030A9FED3F0A80ED060A9FEDA3
:1017A0003D0A3D4880ED140A9FED3A0A80ED180A83
:1017B000002081F829003548007BC0F34000002854
:1017C00037D0334890F82900002832D1002401F0A6
:1017D0003FF82044C4B2012001F03AF82044C4B2DA
:1017E000022001F035F82044C4B2032001F030F8A3
:1017F0002044C4B2BCB10020254981F828009FEDE7
:10180000250A084680ED030A9FED220A80ED060AAC
:101810009FED200A204880ED140A9FED1E0A80EDFE
:10182000180A00F03FF81CB90120194981F8290075
:1018300000BF1748B0F9020000EE100AB8EEC00A67
:10184000DFED160A80EE201A114880ED041AD0ED63
:10185000040A90ED041AB3EE090A10EE810AF6EEBE
:10186000000A20EE200AF2EE060A20EE200A80EDA1
:10187000050A90ED050ADFED0A0A80EE201A9FEDB9
:10188000070A21EE000A80ED070A10BD3BD30124B0
:10189000F8CE0124000000000CBC01240000C84266
:1018A000001CDA447047000010B501204849087058
:1018B0000020484981F850069FED470A084680ED10
:1018C000000A9FED460A80ED010A9FED450A80ED72
:1018D000020A9FED440A80ED030A9FED420A80ED63
:1018E000040A002180F80416394890F9000047F6F0
:1018F0009D71A1EB4030A0F580403649C1F83C060F
:101900000846D0F83C06B0F5803F06DB0846D0F824
:101910003C06A0F58030C1F83C062E48D0F83C06C5
:10192000002807DA2B48D0F83C0600F5803029491A
:10193000C1F83C0640F20A512648C0F840169FED17
:101940002A0A80ED0A0A9FED290A80ED5E0A9FEDC2
:10195000280A80EDB20A9FED270A00F5816080ED2C
:10196000040ADFED200A9FED240A00F5BE700FF097
:101970008FFDDFED1C0A9FED200A20480FF088FD47
:10198000DFED180A9FED1E0A1C4830300FF080FD75
:10199000DFED140A9FED1A0A184810300FF078FD99
:1019A000DFED100A9FED170A144820300FF070FD8C
:1019B00042F6E06107480187A0F88811A0F8D81224
:1019C000A0F8281400F020F800F0D4F810BD0000B2
:1019D000CF010024B0B60124F6489E439A59A14392
:1019E00000007042000000009899F04100000E4392
:1019F00000002A439C237F438FC2753C44BC0124D2
:101A0000CDCCCC3D9A99193E10B500242BE0C4EB07
:101A1000C40101EB4102334901EB021101F15C0009
:101A20009FED312ADFED311AB1EE081ADFED300AF1
:101A3000B2EE040A0DF0C2FDC4EBC40101EB410299
:101A4000284901EB021101F124009FED2A2ADFED64
:101A50002A1A9FED271ADFED290A9FED290A0DF0BA
:101A6000ADFD601CC4B2042CD1DB9FED260A2648D4
:101A70000DF0B9FDB2EE062AF7EE001A9FED231A1B
:101A8000DFED230A9FED230A23480DF097FD9FED1C
:101A9000232ADFED171A9FED161ADFED150AB0EEB7
:101AA000080A1D483C380DF089FD9FED110A0D48CC
:101AB0005C300DF095FD9FED0E0A19480DF090FD7C
:101AC0009FED0B0A104828380DF08AFD9FED080A9B
:101AD00014480DF085FD9FED140A0F480DF080FDB0
:101AE00010BD0000C8B6012400007A460000FA4587
:101AF0000000000000A00C4600803B450AD7A33C34
:101B0000000032430000FA44ECB901249A99193ECE
:101B10006F12833ACDCCCC3EC0BC01240000A04261
:101B200074B8012414BB0124CDCCCC3D10B50128E0
:101B300006D0022809D0042811D0082814D109E0C1
:101B400001230B4C84F84C360FE0FF24084B83F83C
:101B50004E460AE00124064B83F84F4605E0FF2479
:101B6000034B83F84D4600E000BF00BF10BD0000EE
:101B7000B0B6012410B5194B022200210F200EF03F
:101B8000C9FA174B032200210F200EF0C3FA154BA0
:101B90000222002140200EF0BDFA134B0222002148
:101BA000D0010EF0B7FA114B0222002180200EF076
:101BB000B1FA0F4B0322002140200EF0ABFA0D4B7F
:101BC000032200214FF480700EF0A4FA0A4B032286
:101BD000002180200EF09EFA10BD00002D1B000891
:101BE000FD1B000855DD000875DD000819DD000843
:101BF00065DD0008A1DD000845DD000810B50128FD
:101C000006D0022809D0042811D0082814D109E0F0
:101C100000230B4C84F84C360FE00024084B83F86B
:101C20004E460AE00024064B83F84F4605E00024A8
:101C3000034B83F84D4600E000BF00BF10BD00001D
:101C4000B0B6012470B52DED028B5C480FF030FC6E
:101C50005A4810300FF02CFC584840300FF028FC48
:101C6000574890F94C1690F94E06084400EE900A39
:101C7000F8EEE00A534890ED001A60EE810AB0EEEB
:101C8000600A4E4810300FF061FC4D4890F94F1635
:101C900090F94D06084400EE900AF8EEE00A494833
:101CA00090ED001A60EE810AB0EE600A43480FF032
:101CB0004DFC0FF04FFC0BF03BFA462814DD0025DD
:101CC0000FE0C5EBC50101EB41023D49183101EBC5
:101CD000021101F184009FED3C0A0DF084FC681CA8
:101CE000C5B2042DEDDB13E000250FE0C5EBC50107
:101CF00001EB41023249183101EB021101F184007C
:101D00009FED320A0DF06FFC681CC5B2042DEDDBAF
:101D100041F64C542A4890ED000AD0ED010A30EE0D
:101D2000200AF1EE000A80EE208A00EE104AF8EE5A
:101D3000400A9FED271A80EE810A9FED261AC0EE19
:101D4000010AB0EE000A20EE800ADFED230A20EE41
:101D5000200AD0ED020A20EE200A00F25C5080ED4D
:101D6000030A90ED030A80ED040ADFED1C0A80EE01
:101D7000880A9FED171AC0EE010A9FED160A80EE41
:101D8000801AB0EE000A21EE000ADFED130A20EE01
:101D9000200A0B48D0ED020A20EE200AF7EE000AD6
:101DA00020EE200ADFED0E0A80EE201A00F25C50D1
:101DB00080ED051ABDEC028B70BD000034BC01241F
:101DC000B0B60124D0010024000048440080BB4488
:101DD000000070423C3C7C41DB0F49400080BB4529
:101DE000F4FDB43F00B50146F0EE403AB0EE604A73
:101DF000B0EE413AB1EE431AF0EE440AB0EE630A97
:101E000001F150000DF0C7F9D1ED190AB0EE600AEA
:101E1000F0EE430A08460DF0E9FB91ED070A81ED6B
:101E2000200A00BD9FED0A0A80ED040A9FED080A12
:101E300080ED030A9FED060A80ED060A9FED040A75
:101E400080ED050A9FED020A80ED080A7047000048
:101E50000000000080ED000AC0ED010A80ED021ACA
:101E6000C0ED0B1A80ED0A2AC0ED092A7047000068
:101E700010B5024801F070FF10BD0000000C0024F6
:101E800010B5024801F068FF10BD0000780C002476
:101E900010B5024801F060FF10BD00009C10002446
:101EA00010B5024801F058FF10BD000014110024C5
:101EB00010B5024801F050FF10BD0000D40D002401
:101EC00010B5024801F048FF10BD000004120024C4
:101ED00010B5024801F040FF10BD00007C12002444
:101EE00010B5024801F038FF10BD00008C1100242D
:101EF0000146374A0868904249D0354A1832086886
:101F0000904244D0324A3032086890423FD0304A42
:101F10004832086890423AD02D4A603208689042B0
:101F200035D02B4A78320868904230D0284A903217
:101F3000086890422BD0264AA8320868904226D0E2
:101F4000244A0868904222D0224A183208689042F7
:101F50001DD0204A30320868904218D01D4A4832BD
:101F60000868904213D01B4A6032086890420ED035
:101F7000184A78320868904209D0164A90320868A8
:101F8000904204D0134AA8320868904201D101203F
:101F900000E00020B0B10A78103A1823B2FBF3F049
:101FA00000F007020C4B9A5CCA65032805D90A6841
:101FB0006FF30902121D8A6503E00A686FF30902D4
:101FC0008A6503E0086820F0FF008865886D704727
:101FD00010000240100402404891010810B5026848
:101FE0002B4C0368A34222D0294C14340368A3422B
:101FF0001DD0274C28340368A34218D0244C3C340D
:102000000368A34213D0224C50340368A3420ED07D
:102010001F4C64340368A34209D01D4C7834036814
:10202000A34204D01A4C8C340368A34201D101238B
:1020300000E000238BB10378083B1424B3FBF4F1D8
:10204000144B03EB81030366124B8033436601F0AC
:102050001F040123A340836618E00378103B182473
:10206000B3FBF4F10C4B9A4204D80B4BA83B9A42B9
:1020700000D30831094B03EB81030366074B803320
:10208000436601F01F040123A340836610BD0000D6
:102090000854025800580258B80402400008024090
:1020A0000179A9B3082940D8204B02689A4222D06E
:1020B0001E4B143302689A421DD01C4B2833026811
:1020C0009A4218D0194B3C3302689A4213D0174BEE
:1020D000503302689A420ED0144B643302689A421D
:1020E00009D0124B783302689A4204D00F4B8C33DC
:1020F00002689A4201D1012200E000224AB14A1E40
:102100000B4B03EB8202C266094A4032026708E0C9
:102110000BE04A1E074B03EB8202C266054A4032BF
:1021200002674A1E012393404367704708540258D0
:102130000059025800090240014600208A69D2B9BC
:102140008A6A32B1012A0DD0022A03D0032A10D1A3
:102150000EE000BFCA6A02F08072B2F1807F00D147
:10216000012007E0CA6AB2F1C07F00D1012001E07E
:1021700000E000BF36E08A69B2F5005F1BD18A6AD1
:1021800032B1012A07D0022A03D0032A11D10AE072
:1021900000BF01200EE0CA6A02F08072B2F1807FB7
:1021A00000D1012006E0CA6AB2F1C07F00D101204F
:1021B00000E000BF16E08A6A32B1012A05D0022A87
:1021C00004D0032A0CD103E000BF00BF012008E0C7
:1021D000CA6A02F08072B2F1807F00D1012000E073
:1021E00000BF00BF70470000F0B5856D846D984F4B
:1021F0000668BE4270D0964F18370668BE426BD054
:10220000934F30370668BE4266D0914F4837066814
:10221000BE4261D08E4F60370668BE425CD08C4FA4
:1022200078370668BE4257D0894F90370668BE425D
:1022300052D0874FA8370668BE424DD0854F0668FA
:10224000BE4249D0834F18370668BE4244D0814F02
:1022500030370668BE423FD07E4F48370668BE42E0
:102260003AD07C4F60370668BE4235D0794F783718
:102270000668BE4230D0774F90370668BE422BD0FA
:10228000744FA8370668BE4226D0734F0668BE4218
:1022900022D0714F14370668BE421DD06E4F2837CA
:1022A0000668BE4218D06C4F3C370668BE4213D059
:1022B000694F50370668BE420ED0674F64370668D4
:1022C000BE4209D0644F78370668BE4204D0624FE0
:1022D0008C370668BE4201D1012600E000263EB1DF
:1022E000D0E919767E60C66E16B1D0E91C767E60A4
:1022F000574F0668BE4249D0554F18370668BE4250
:1023000044D0534F30370668BE423FD0504F483715
:102310000668BE423AD04E4F60370668BE4235D09E
:102320004B4F78370668BE4230D0494F9037066829
:10233000BE422BD0464FA8370668BE4226D0454F36
:102340000668BE4222D0434F18370668BE421DD0F1
:10235000404F30370668BE4218D03E4F48370668B7
:10236000BE4213D03B4F60370668BE420ED0394F95
:1023700078370668BE4209D0364F90370668BE42AD
:1023800004D0344FA8370668BE4201D1012600E0D0
:102390000026DEB190F85C6006F01F073F26BE40C5
:1023A000AE600668366826F4802607683E600668D8
:1023B00073608668402E04D10668B2600668F160DA
:1023C00044E00668B1600668F2603FE0224F0668AC
:1023D000BE4222D0204F14370668BE421DD01E4F89
:1023E00028370668BE4218D01B4F3C370668BE42ED
:1023F00013D0194F50370668BE420ED0164F6437BF
:102400000668BE4209D0144F78370668BE4204D031
:10241000114F8C370668BE4201D1012600E000262C
:10242000A6B190F85C6006F01F070126BE4066600A
:10243000066873608668402E04D10668B26006683C
:10244000F16003E00668B1600668F260F0BD00006C
:1024500010000240100402400854025808B5084811
:1024600040680090074900980968884204D20648ED
:102470000068401C0449086002490098086008BDD3
:10248000001000E098020024940200240C494868DF
:10249000F0EE400A00BF0A494968091A01EE101A15
:1024A000F8EE411A074991ED001AB8EE411A20EEF4
:1024B000811AF4EEC11AF1EE10FAECD37047000065
:1024C000001000E08802002410B52DED028B82B0D0
:1024D00004460E484068019020680199081A00EEF1
:1024E000100AF8EE400A0A4890ED000AB8EE400AD9
:1024F00080EE801AB0EE418A01982060FFF7AEFFAF
:10250000B0EE480A02B0BDEC028B10BD001000E036
:102510008802002410B52DED028B00F059F80F4809
:1025200090ED000AB8EE400A808800EE900AF8EEBE
:10253000600A9FED0B1A00EE810A0848C08800EE81
:10254000900AF8EE600A9FED071A00EE810AB0EEDD
:10255000408AB0EE480ABDEC028B10BD8002002418
:102560006F12833ABD3786351249096841F0807190
:10257000104A11600021104A51601146096841F06B
:10258000010111600D4941430D4A1160114609686E
:102590004FF47A72B1FBF2F10A4A116008490968F6
:1025A000064AB1FBF2F1084A11600021074A1160A6
:1025B00070470000FCED00E0001000E040420F001A
:1025C000880200248C02002490020024940200243B
:1025D00038B5294840680090FFF740FF2748006859
:1025E0004FF0FF31A0FB01310098181841F10001B4
:1025F000234A03C2234800232149026803C9FDF787
:10260000B3FF214A03C220480CC81E4800680024BA
:10261000A2FB001503FB005002FB04021848D0E99E
:102620000030591A60EB0200184AC2E9001016483F
:10263000006817490860174800231449026803C955
:10264000FDF792FF12498880084680881149096881
:1026500041430E48D0E90030591A60F100000E4A9B
:10266000C2E900100D4800230B49026803C9FDF7B9
:102670007BFF0749C88038BD001000E094020024A9
:10268000A002002488020024A8020024B002002432
:10269000800200248C020024B8020024900200244E
:1026A00070470000042805D19FED0E0A0E4981ED08
:1026B000190A16E0052805D19FED0A0A0A4981ED9D
:1026C0006D0A0EE0062805D19FED060A064981ED48
:1026D000C10A06E0072804D19FED020A034981EDF3
:1026E000130A704700000000B0B60124B8BA0124F4
:1026F00010B50446042C03D10A480CF0E1F810E0B0
:10270000052C03D108480CF0DBF80AE0062C03D1B5
:1027100006480CF0D5F804E0072C02D104480CF070
:10272000CFF810BDC8B6012418B8012468B9012437
:10273000B8BA012400B500231A463221184600F029
:102740006BF800231A463221012000F065F80023BF
:102750001A463221022000F05FF800231A46322187
:10276000032000F059F800231A463221042000F01B
:1027700053F800231A463221052000F04DF80023BB
:102780001A463221062000F047F800231A4632216B
:10279000072000F041F800231A463221082000F0FB
:1027A0003BF800231A4632210C2000F035F80023B4
:1027B0001A4632210A2000F02FF800231A4632214F
:1027C0000B2000F029F800231A463221092000F0DE
:1027D00023F800230D4A64210D2000F01DF800238A
:1027E0001A464FF4FA710E2000F016F800231A462C
:1027F0004FF4FA710F2000F00FF8054B054A4FF423
:10280000FA71102000F008F800BD0000BDFD0008BE
:10281000E3340008E134000870B500EB80040B4D90
:1028200045F82410002400EB8005084E06EB8505D2
:102830002C7200EB8004354605EB8404E26000EB6B
:10284000800405EB8404236170BD0000A8D101243D
:10285000014601EB8100024A02EB8000007A7047DA
:10286000A8D1012410B5044603F0F0FC04EB840168
:10287000024A02EB8101486010BD0000A8D101248A
:10288000D2ED020A92ED021AB6EE000A00EEC10A7B
:10289000D2ED030A92ED031A00EEC10AD0ED000A50
:1028A00020EE200AD2ED010A92ED021A60EE810AB2
:1028B00092ED001AD2ED031A41EE210A90ED011AB1
:1028C00000EE810AD2ED010A92ED031A60EE810A50
:1028D00092ED001AD2ED021A41EE610A90ED021A51
:1028E00000EE810AF0EE000A20EE200A81ED000AD7
:1028F00092ED010AD2ED020A20EE200AD2ED000A82
:1029000092ED031A00EEC10AD0ED000A60EE200A33
:1029100092ED011AD2ED011AB6EE000A01EE610A3B
:10292000D2ED031A92ED032AB0EE401A01EEC21A5C
:10293000D0ED011AB0EE600A01EE210AD2ED020AD2
:1029400092ED031A60EE810A92ED001AD2ED011A9F
:1029500041EE210A90ED021A00EE810AF0EE000A23
:1029600020EE200A81ED010A92ED010AD2ED030A60
:1029700020EE200AD2ED000A92ED021A00EE810A42
:10298000D0ED000A20EE200AD2ED020A92ED031AE1
:1029900060EE810A92ED001AD2ED011A41EE610A51
:1029A00090ED011A00EE810A92ED011AD2ED011AA2
:1029B000F6EE000A41EE610A92ED021AD2ED021A19
:1029C00041EE610A90ED021A00EE810AF0EE000A73
:1029D00020EE200A81ED020A704772B600BFFEE7C2
:1029E0000748006840F002000549086000BF04483D
:1029F0000838006800F400500028F8D07047000044
:102A00000C48025810B5024802F024FE10BD000028
:102A10009809002410B5024802F01CFE10BD000009
:102A20009809002410B5024802F014FE10BD000001
:102A3000380A002410B5024802F00CFE10BD000058
:102A4000380A002410B5024802F004FE10BD000050
:102A5000D80A002410B5024802F0FCFD10BD0000A9
:102A6000D80A002410B501464A6B0868D0F88400E3
:102A70004FF6FC74A04340EA82000C68C4F884005E
:102A80000868D0F8840020F47F04088F44EA0040EE
:102A90000C68C4F88400886B02440868D0F8880089
:102AA0004FF6FC74A04340EA82000C68C4F888002A
:102AB0000868D0F8880020F4FE04888F44EA0040BB
:102AC0000C68C4F88800C86B02EB40020868D0F8B4
:102AD000A0004FF6FC74A04340EA82000C68C4F8E2
:102AE000A0000868D0F8A00020F4FE044020405A5E
:102AF00044EA00400C68C4F8A000D1E9104004FB8F
:102B000000220868D0F8B0004FF6FC74A04340EAF9
:102B100082000C68C4F8B0000868D0F8B00020F457
:102B2000FE04B1F8480044EA00400C68C4F8B00064
:102B3000D1E9124004FB00220868D0F8AC004FF63F
:102B4000FC74A04340EA82000C68C4F8AC00D1E9F0
:102B5000144004FB00220868D0F8F0004FF6FC7423
:102B6000A04340EA82000C68C4F8F0000868D0F87E
:102B7000F00020F47C14B1F8580044EA00400C68DE
:102B8000C4F8F000886D02EB40020868D0F8C0007D
:102B90004FF6FC74A04340EA82000C68C4F8C00001
:102BA0000868D0F8C00020F47C14B1F85C0044EA56
:102BB00000400C68C4F8C0000868D0F8C00020F0DD
:102BC0007C5491F8600044EA00600C68C4F8C000CE
:102BD0002A4C486B04EB8000C866CC6E886B04EB13
:102BE00080040C670C6FC86B04EBC0044C67D1E920
:102BF000100460434C6F04EB80048C67D1E912042D
:102C000060438C6F04EB8004CC67D1E9140460430B
:102C1000CC6F04EB8004802044504458886D04EB52
:102C2000C004842044508C6EC86D60438424645872
:102C300004EB8004882044508C6E086E6043882426
:102C4000645804EB80049020445040580C4CA0423F
:102C500009D99831486840F020004860032001F805
:102C60009809012010BDCB6E02E0002018601B1DEA
:102C7000902040589842F8D80020F3E700AC00407C
:102C8000FCD300402DE9F041054614461E46D1F81C
:102C900004C0BCF1000F0AD1D1F810C0D1F80880EF
:102CA0004CEA080CB1F800804CEA88430BE0D1F8FC
:102CB00010C04CF0804CD1F808804CEA080CD1F8D8
:102CC00000804CEA080391F82080D1F81CC04CEA3F
:102CD000086CD1F818804CEA080CD1F814804CEA42
:102CE000080CB1F80C804CEA0847D5F868C00CFB1A
:102CF00006FCD5F8848008EB8C021360121D176067
:102D0000121D002019E000F1030C14F80CC04FEA6A
:102D10000C6800F1020C14F80CC048EA0C4800F1F1
:102D2000010C14F80CC048EA0C2C14F800804CEA92
:102D3000080CC2F800C0121D001DDFF81480D1F885
:102D40000CC018F80CC08445DDD8BDE8F081000047
:102D500050910108F0EE400A9FED180AB0EE401ABB
:102D6000002112E04A1C00EB820292ED000A00EB07
:102D7000810282ED000A00EB810292ED000A30EE42
:102D8000010AB0EE401A4A1C91B2B0F89021521ECE
:102D90008A42E7DCB0F89011491E00EB8101C1EDD9
:102DA000000A31EE200AB0EE401AB0F8901100EEA1
:102DB000101AF8EE401A81EE210A70470000000058
:102DC000A0F89011002207E09FED050A00EB8203B6
:102DD00083ED000A531C9AB28A42F5DB704700006B
:102DE0000000000010B55548B0F91400B0F5167F8A
:102DF00004DD0120524981F8500609E04F48B0F93E
:102E0000140010F5167F03DA00204D4981F85006B2
:102E10004C480068002804DD4A480068401E4949C3
:102E20000860474890F8500600287ED04348B0F923
:102E3000040000EE100AB8EEC00AB7EEC00A9FED1B
:102E4000421B20EE010B9FED421B80EE012BB7EEE3
:102E5000C20B414880ED000A3848B0F9060000EE88
:102E6000100AB8EEC00AB7EEC00A9FED371B20EE7D
:102E7000010B9FED371B80EE012BB7EEC20B3648DE
:102E800080ED010A2D48007A022806D13248007AE6
:102E900018B90120304948720EE02848007A03280A
:102EA00007D02648007A022806D12B48007A01284C
:102EB00002D10020284948722048007A012818D100
:102EC0001E48407A012814D01E48006888B94FF483
:102ED00096701C4908602048007A18B901201E49E4
:102EE000087206E01C48007A012802D100201A4925
:102EF00008721248007A02280FD11748007A012878
:102F00000BD10A22012115480AF05AFF1449087012
:102F100000201149087210E007E00A2200210F4842
:102F20000AF04EFF0E49087007E0FEF78BFE0D48D1
:102F300090ED100A084880ED010A10BD1CDB012449
:102F4000B0B60124E80100249A999999999905400D
:102F50000000000000A0844008BD0124F40100240A
:102F6000CD0100240CBC012430B5034613B94FF643
:102F7000FF7030BD09E013F8014B82EA0400C0B2D3
:102F8000054D35F8100080EA2222081EA1F101014A
:102F9000F1D11046EDE700009693010830B50346E5
:102FA00005E013F8010B80EA02040448025D081EE4
:102FB000A1F10105A9B2F4D1104630BD95920108E6
:102FC00070B50A480468001D0568001D0668344491
:102FD00054B10822064920460AF080F80422044928
:102FE000103128460AF07AF870BD000000E8F11FA1
:102FF0008E00002410B59FED1D0A1D4880ED310A9A
:10300000BAEE0D0A80ED320A9FED1A0A80ED2C0A05
:1030100090ED2C0A80ED300A9FED160A80ED000A33
:1030200090ED000A80ED060A0020114981F838026F
:1030300081F8390281F8700AA1F83A029FED0D0A71
:10304000084680ED8F0A0A2100F58360FFF7B8FE7D
:1030500002210948FFF7B4FE19210848FFF7B0FE26
:1030600000F00EF800F0ACF810BD000000000042C7
:1030700024BD012400000000A8BF012400C60124D3
:1030800010B59FED1E2ADFED1E1A9FED1E1ADFED13
:103090001E0AB0EE080A1D480CF090FADFED1C2A5B
:1030A0009FED1C2ADFED1C1A9FED1C1ADFED1C0A98
:1030B000B3EE040A15485030FEF7CCFEB1EE0C2AF0
:1030C000DFED141A9FED171ADFED150A9FED160AB2
:1030D0000E48B0380CF072FAF6EE002AB3EE042A6D
:1030E000F3EE041A9FED111ADFED110A9FED110A9C
:1030F00006486038FEF7AEFE10BD00000000004537
:103100000000FA43CDCCCC3E0AD7233DF0BD0124CC
:103110006666663F00007A44000048428FC2753CF4
:10312000000000006F12033A0AD7A33B0AD7A33C62
:103130006F12833A3333333F10B59FED1D0A1D489C
:1031400080EDCB0A9FED1A0A80EDCA0A1A48B0F941
:103150000A0000EE900AF8EEE00A164890EDCB1A4D
:1031600060EE810AB0EE600A00F5CA70FFF7F2FD6A
:103170001248D0ED060A30EEC00A80ED060A0E486D
:10318000B0F90C0000EE900AF8EEE00A094890ED64
:10319000CA1A60EE810AB0EE600AFFF7DBFD07484D
:1031A000D0ED300A30EE200A80ED300A10BD00006C
:1031B0000AD7A33BA8BF01241CDB012424BD0124A2
:1031C000704700001A48B0F9000000EE100AB8EE8F
:1031D000C00B9FED181B20EE010B9FED182B80EE0E
:1031E000021B184890ED060AB7EEC00A30EE410BFC
:1031F000B7EEC00B80ED060A0D48B0F9020000EEF4
:10320000100AB8EEC00B9FED0B1B20EE011B9FEDCB
:103210000B2B81EE020B0B4890ED301AB7EEC11A62
:1032200030EE010BB7EEC00B80ED300A70470000A6
:103230001CDB0124666666666666D63F00000000F9
:1032400000A0844024BD012410B52DED028B12F0A6
:10325000E3FF564880ED050A12F0C6FF534880EDA3
:10326000010A12F0C7FF514880ED2F0A12F0B6FF95
:103270004E4880ED2D0A9FED4E0AB0EE408A90ED4B
:10328000010AD0ED020A30EE600ADFED4A0AB4EE20
:10329000E00AF1EE10FA0CD290ED010AD0ED020A2C
:1032A0009FED451A71EE600A30EE200AB0EE408ABA
:1032B00025E03E4890ED010AD0ED020A30EE600AAA
:1032C000DFED3E0AB4EEE00AF1EE10FA0EDD90ED0D
:1032D000020AB1EE400AD0ED010A9FED371A71EEF5
:1032E000600A30EE600AB0EE408A08E02F4890EDA8
:1032F000010AD0ED020A30EE600AB0EE408A2B4897
:1033000090ED030A30EE080A80ED030A2BE027480F
:1033100090ED060AD0ED030A30EE600ADFED260AD2
:10332000B4EEE00AF1EE10FA07DB90ED060ADFEDED
:10333000220A30EE600A80ED060A1C4890ED030A6E
:10334000D0ED060A30EE600ADFED1B0AB4EEE00AAB
:10335000F1EE10FA07DB90ED060ADFED170A30EE0A
:10336000200A80ED060A114890ED060AD0ED030A06
:1033700030EE600ADFED100AB4EEE00AF1EE10FA6A
:10338000C5DA90ED030AD0ED060A30EE600ADFEDF3
:103390000A0AB4EEE00AF1EE10FAB8DA90ED010A8A
:1033A00080ED020ABDEC028B10BD000024BD01249B
:1033B00000000000000087C30000B4430000874302
:1033C0004248D0ED060A9FED421AC0EE811AF5EE92
:1033D000C01AF1EE10FA0CDD90ED061ADFED3C1A82
:1033E000C1EE210AB6EE001A70EE810ABDEEE00AC7
:1033F0000CE0364890ED061ADFED351AC1EE210AD1
:10340000B6EE001A70EEC10ABDEEE00A3148D0ED0A
:10341000050AB8EEC01ADFED2E1A41EE210A2B483C
:1034200090ED061A70EEC10A9FED2B1AF4EEC10A58
:10343000F1EE10FA10DD2748D0ED050AB8EEC01AFB
:10344000DFED231A41EE210A9FED211A70EEC10A29
:103450001E48C0ED060A31E01E48D0ED050AB8EE60
:10346000C01ADFED1B1A41EE210A184890ED061A2A
:1034700070EEC10A9FED191AF4EEC10AF1EE10FACE
:1034800010D21448D0ED050AB8EEC01ADFED101ABC
:1034900041EE210A9FED0E1A70EE810A0B48C0ED35
:1034A000060A0BE00B48D0ED050AB8EEC01ADFEDB6
:1034B000081A41EE210A0548C0ED060A0548D0ED7C
:1034C000080A0248C0ED300A7047000024BD0124FC
:1034D0000000B443DCCD012400003443000034C3B9
:1034E000704770472DE9F041044602F0AFFE804678
:1034F00014B90120BDE8F08194F83500022808D005
:103500008020606500BF002084F8340000BF0120E7
:10351000F0E7FE492068884249D0FC49183120680C
:10352000884244D0F9493031206888423FD0F74979
:103530004831206888423AD0F44960312068884296
:1035400035D0F24978312068884230D0EF49903147
:10355000206888422BD0ED49A8312068884226D0C7
:10356000EB492068884222D0E94918312068884216
:103570001DD0E74930312068884218D0E4494831ED
:103580002068884213D0E2496031206888420ED01A
:10359000DF4978312068884209D0DD4990312068C0
:1035A000884204D0DA49A8312068884201D101203C
:1035B00000E0002068B12068006820F01E0021684B
:1035C00008602068406920F0800021684861256813
:1035D00006E02068006820F00E0021680860256879
:1035E000CA492068884270D0C8491831206888428A
:1035F0006BD0C64930312068884266D0C349483113
:103600002068884261D0C1496031206888425CD01E
:10361000BE4978312068884257D0BC499031206833
:10362000884252D0B949A831206888424DD0B84963
:103630002068884249D0B64918312068884244D071
:10364000B3493031206888423FD0B14948312068C1
:1036500088423AD0AE4960312068884235D0AC49C2
:1036600078312068884230D0A9499031206888425A
:103670002BD0A749A8312068884226D0A5492068C8
:10368000884222D0A3491431206888421DD0A14924
:1036900028312068884218D09E493C3120688842F1
:1036A00013D09C495031206888420ED0994964312A
:1036B0002068884209D0974978312068884204D030
:1036C00094498C312068884201D1012000E000201B
:1036D00028B1206E006820F48070216E08608B494C
:1036E0002068884249D0894918312068884244D0EE
:1036F00086493031206888423FD08449483120686B
:1037000088423AD0814960312068884235D07F496B
:1037100078312068884230D07C49903120688842D6
:103720002BD07A49A8312068884226D07849206871
:10373000884222D076491831206888421DD07449C9
:1037400030312068884218D0714948312068884259
:1037500013D06F496031206888420ED06C497831AF
:103760002068884209D06A4990312068884204D094
:103770006749A8312068884206D12068006820F097
:1037800001002168086005E02068006820F0010061
:103790002168086011E002F059FDA0EB080005283F
:1037A0000BD920206065032084F8350000BF00207D
:1037B00084F8340000BF01209CE6286800F0010076
:1037C0000028E8D151492068884249D04F49183132
:1037D0002068884244D04D493031206888423FD02B
:1037E0004A494831206888423AD0484960312068C7
:1037F000884235D0454978312068884230D04349E5
:103800009031206888422BD04049A83120688842F6
:1038100026D03F492068884222D03D49183120688F
:1038200088421DD03A4930312068884218D0384942
:1038300048312068884213D0354960312068884279
:103840000ED0334978312068884209D03049903110
:103850002068884204D02E49A8312068884201D1CE
:10386000012000E0002040B1A66D94F85C0000F05B
:103870001F013F208840B06007E0A76D94F85C000E
:1038800000F01F01012088407860204920688842AC
:1038900076D01E4918312068884271D01B493031DA
:1038A000206888426CD0194948312068884267D026
:1038B000164960312068884262D014497831206806
:1038C00088425DD0114990312068884258D00F4914
:1038D000A8312068884253D00D49206888424FD0D3
:1038E0000B491831206888424AD009493031206894
:1038F000884245D0064948312068884240D0044972
:103900006031206888423BD0014905E01000024048
:1039100010040240085402587831206888422FD0A1
:103920002549206888422BD02349183120688842D5
:1039300026D022492068884222D0204914312068AC
:1039400088421DD01D4928312068884218D01B4963
:103950003C312068884213D0184950312068884291
:103960000ED0164964312068884209D01349783155
:103970002068884204D011498C312068884201D1E6
:10398000012000E0002068B1D4E919104860E06E21
:1039900040B1E06E006820F48070E16E0860D4E908
:1039A0001C104860012084F8350000BF002084F816
:1039B000340000BF00BF9DE5A00402400854025837
:1039C00070B504460CB9012070BD94F8350002288A
:1039D00003D0802060650120F6E7DC49206888423A
:1039E00049D0DA4918312068884244D0D74930316B
:1039F000206888423FD0D5494831206888423AD073
:103A0000D24960312068884235D0D0497831206869
:103A1000884230D0CD499031206888422BD0CB49A4
:103A2000A8312068884226D0C9492068884222D01F
:103A3000C7491831206888421DD0C54930312068F7
:103A4000884218D0C24948312068884213D0C04902
:103A50006031206888420ED0BD49783120688842A4
:103A600009D0BB4990312068884204D0B849A831B8
:103A70002068884201D1012000E00020F0B304203A
:103A800084F83500B149206888424BD0AF491831DD
:103A90002068884246D0AD4930312068884241D004
:103AA000AA494831206888423CD0A8496031206842
:103AB000884237D0A54978312068884232D0A3495E
:103AC0009031206888422DD0A049A83120688842D2
:103AD00028D09F492068884224D09D491831206809
:103AE00088421FD09A493031206888421AD09849BC
:103AF00048312068884215D0954900E020E06031C7
:103B0000206888420ED0924978312068884209D0D6
:103B10008F4990312068884204D08D49A8312068AF
:103B2000884206D12068006820F001002168086002
:103B300009E12068006820F001002168086002E1C6
:103B40002068006820F00E00216808607F49206826
:103B5000884249D07D4918312068884244D07B4949
:103B60003031206888423FD0784948312068884207
:103B70003AD0764960312068884235D0734978312F
:103B80002068884230D071499031206888422BD01B
:103B90006E49A8312068884226D06D492068884245
:103BA00022D06B491831206888421DD068493031D5
:103BB0002068884218D0664948312068884213D06E
:103BC00063496031206888420ED0614978312068AD
:103BD000884209D05E4990312068884204D05C490F
:103BE000A8312068884206D12068006820F00100D2
:103BF0002168086005E02068006820F00100216865
:103C0000086052492068884270D0504918312068B5
:103C100088426BD04D4930312068884266D04B498C
:103C200048312068884261D0484960312068884224
:103C30005CD0464978312068884257D0434990315A
:103C40002068884252D04149A831206888424DD02E
:103C50003F492068884249D03D4918312068884250
:103C600044D03B493031206888423FD03849483100
:103C7000206888423AD0364960312068884235D081
:103C8000334978312068884230D0314990312068FA
:103C900088422BD02E49A8312068884226D02D4951
:103CA0002068884222D02B491431206888421DD0D8
:103CB000284928312068884218D026493C3120689C
:103CC000884213D023495031206888420ED02149C0
:103CD00064312068884209D01E49783120688842C2
:103CE00004D01C498C312068884201D1012000E0B9
:103CF0000020D8B1206E006820F48070216E08602A
:103D0000A56D94F85C0000F01F01012088406860F8
:103D1000D4E919104860E06E40B1E06E006820F40C
:103D20008070E16E0860D4E91C104860012084F8BE
:103D3000350000BF002084F8340000BF206D10B1B2
:103D40002046216D884700203EE60000100002401A
:103D500010040240085402582DE9F84F0446002090
:103D60000090FE4800684FF41651B0FBF1FAA66DC2
:103D7000D4F858803768D8F80090F949206888420C
:103D800049D0F74918312068884244D0F44930318D
:103D9000206888423FD0F2494831206888423AD0B2
:103DA000EF4960312068884235D0ED49783120688C
:103DB000884230D0EA499031206888422BD0E849C7
:103DC000A8312068884226D0E6492068884222D05F
:103DD000E4491831206888421DD0E249303120681A
:103DE000884218D0DF4948312068884213D0DD4925
:103DF0006031206888420ED0DA49783120688842E4
:103E000009D0D84990312068884204D0D549A831DA
:103E10002068884201D1012000E0002000287DD0E8
:103E200094F85C0000F01F0108208840384000280A
:103E300068D0CB492068884249D0C94918312068E8
:103E4000884244D0C6493031206888423FD0C449B6
:103E50004831206888423AD0C149603120688842A0
:103E600035D0BF4978312068884230D0BC49903184
:103E7000206888422BD0BA49A8312068884226D0D1
:103E8000B8492068884222D0B64918312068884253
:103E90001DD0B44930312068884218D0B14948312A
:103EA0002068884213D0AF496031206888420ED024
:103EB000AC4978312068884209D0AA4990312068FD
:103EC000884204D0A749A8312068884204D12068DC
:103ED000006800F0040003E02068006800F00800BB
:103EE00080B12068006820F004002168086094F820
:103EF0005C0000F01F0108208840B060606D40F059
:103F00000100606594F85C0000F01F01012088400A
:103F10003840E8B392492068884200E0B7E24BD0CD
:103F20008F4918312068884246D08D493031206849
:103F3000884241D08A494831206888423CD088492B
:103F400060312068884237D08549783120688842BE
:103F500032D083499031206888422DD08049A831E1
:103F60002068884228D07F492068884224D07D4933
:103F70001831206888421FD07A4930312068884241
:103F80001AD0784948312068884215D0754900E038
:103F900026E06031206888420ED07249783120686E
:103FA000884209D06F4990312068884204D06D4919
:103FB000A8312068884204D12068406900F0800060
:103FC00002E020680068002050B194F85C0000F026
:103FD0001F0101208840B060606D40F00200606504
:103FE00094F85C0000F01F01042088403840E8B3DA
:103FF0005B49206888424BD0594918312068884273
:1040000046D0574930312068884241D05449483120
:10401000206888423CD0524960312068884237D0BD
:104020004F4978312068884232D04D49903120681C
:1040300088422DD04A49A8312068884228D0494971
:104040002068884224D047491831206888421FD010
:1040500044493031206888421AD0424948312068AA
:10406000884215D03F496031206800E024E0884252
:104070000ED03C4978312068884209D039499031C6
:104080002068884204D03749A8312068884204D18A
:104090002068006800F0020002E02068006800204C
:1040A00050B194F85C0000F01F0104208840B0601B
:1040B000606D40F00400606594F85C0000F01F0142
:1040C000102088403840E8B325492068884251D004
:1040D00023491831206888424CD02149303120686A
:1040E000884247D01E4948312068884242D01C4946
:1040F0006031206888423DD0194978312068884273
:1041000038D0174990312068884233D01449A831FB
:10411000206888422ED01349206888422AD011494D
:1041200018312068884225D00E49303120688842F5
:1041300020D00C494831206888421BD009496031A1
:10414000206800E04DE0884214D0064978312068AC
:1041500088420FD003499031206805E0C800002450
:104160001000024010040240884203D0FE4920683B
:10417000884204D12068006800F0080003E020684D
:10418000006800F0040060B394F85C0000F01F01C8
:1041900010208840B0602068006800F4802080B162
:1041A0002068006800F4002028B9206CC8B12046BF
:1041B000216C884715E0A06C98B12046A16C884717
:1041C0000FE02068006800F4807028B9206800685B
:1041D00020F0080021680860206C10B12046216C96
:1041E000884794F85C0000F01F0120208840384088
:1041F00000287DD0DD492068884249D0DB4918314C
:104200002068884244D0D9493031206888423FD064
:10421000D6494831206888423AD0D4496031206874
:10422000884235D0D14978312068884230D0CF4992
:104230009031206888422BD0CC49A8312068884230
:1042400026D0C949A8392068884221D0C64990396A
:10425000206888421CD0C44978392068884217D029
:10426000C14960392068884212D0BF494839206866
:1042700088420DD0BC4930392068884208D0BA49FC
:1042800018392068884203D0B7492068884204D191
:104290002068006800F0100003E02068006800F06B
:1042A000020028B394F85C0000F01F012020884031
:1042B000B06094F8350004282DD12068006820F003
:1042C0001600216808602068406920F0800021689D
:1042D0004861206C08B9A06C28B12068006820F003
:1042E00008002168086094F85C0000F01F0100E0FD
:1042F0003FE03F208840B060012084F8350000BFD7
:10430000002084F8340000BF206D10B12046216DDC
:104310008847BDE8F88F2068006800F4802080B1ED
:104320002068006800F4002028B9606C08B32046BB
:10433000616C88471DE0E06BD8B12046E16B88478F
:1043400017E02068006800F4807068B92068006891
:1043500020F0100021680860012084F8350000BFBB
:10436000002084F8340000BFE06B10B12046E16B00
:104370008847606D00287AD0606D00F00100E8B3D6
:10438000042084F835007949206888424BD0774969
:1043900018312068884246D07449303120688842FC
:1043A00041D072494831206888423CD06F49603121
:1043B0002068884237D06D4978312068884232D0F1
:1043C0006A499031206888422DD06849A831206818
:1043D000884228D06449A8392068884223D062499D
:1043E0009039206888421ED05F4978392068884219
:1043F00019D05D4960392068884200E040E012D061
:1044000059494839206888420DD0574930392068C9
:10441000884208D0544918392068884203D052494C
:104420002068884206D12068006820F001002168D9
:10443000086005E02068006820F00100216808603D
:1044400000BF0098401C0090504500D905E020684E
:10445000006800F001000028F3D100BF2068006868
:1044600000F0010020B1032084F8350003E00DE0E6
:10447000012084F8350000BF002084F8340000BF1C
:10448000E06C002802D02046E16C8847D9E1384929
:104490002068884222D036491431206888421DD0D5
:1044A000334928312068884218D031493C3120688E
:1044B000884213D02E495031206888420ED02C49B2
:1044C00064312068884209D02949783120688842BF
:1044D00004D027498C312068884201D1012000E0B6
:1044E00000200028D2D02068056894F85C0000F015
:1044F0001F010420884000EA0900D8B305F0040039
:10450000C0B394F85C0000F01F0104208840C8F894
:10451000040005F4004080B105F4803030B9A06C8F
:104520000028B3D02046A16C88478AE1206C00287F
:10453000ACD02046216C884783E105F02000E8BB21
:104540000A492068884253D00849183120688842B7
:104550004ED0064930312068884249D0034948315D
:104560002068884244D006E0B804024010000240AF
:10457000085402584FE0B44960312068884237D06F
:10458000B14978312068884232D0AF4990312068F3
:1045900088422DD0AC49A8312068884228D0AB4948
:1045A0002068884224D0A9491831206888421FD049
:1045B000A6493031206888421AD000E025E0A3499E
:1045C00048312068884213D0A04960312068884271
:1045D0000ED09E4978312068884209D09B4990319D
:1045E0002068884204D09949A8312068884206D1C1
:1045F0002068006820F008002168086005E0206855
:10460000006820F0040021680860206C10B3204688
:10461000216C884715E194F85C0000F01F0102202E
:10462000884000EA0900E8B305F00200D0B394F82E
:104630005C0000F01F0102208840C8F8040005F467
:10464000004070B105F4803028B9606C10B120468C
:10465000616C8847F5E0E06BF0B32046E16B88477A
:10466000EFE005F02000C0BB7749206888424ED0BB
:10467000754918312068884249D073493031206823
:10468000884244D070494831206888423FD06E4902
:104690006031206888423AD06B497831206888427E
:1046A00035D000E04EE068499031206888422ED035
:1046B0006549A8312068884229D064492068884229
:1046C00025D0624918312068884220D05F493031B6
:1046D000206888421BD001E06EE02DE05B49483144
:1046E0002068884213D059496031206888420ED032
:1046F000564978312068884209D054499031206861
:10470000884204D05149A8312068884206D12068E7
:10471000006820F014002168086005E02068006847
:1047200020F00A0021680860012084F8350000BFED
:10473000002084F8340000BFE06BE8B32046E16B52
:1047400088477EE094F85C0000F01F010820884054
:1047500000EA090080B305F0080068B33A49206810
:1047600088424BD0384918312068884246D03649B3
:1047700030312068884241D033494831206888422E
:104780003CD0314960312068884237D02E49783199
:104790002068884232D02C499031206888422DD040
:1047A0002949A8312068884228D0284920688842B1
:1047B00024D02649183100E043E0206888421DD00B
:1047C000224930312068884218D020494831206879
:1047D000884213D01D496031206888420ED01B49A1
:1047E00078312068884209D0184990312068884281
:1047F00004D01649A8312068884206D12068006894
:1048000020F01C002168086005E02068006820F0A6
:104810000E002168086094F85C0000F01F01012080
:104820008840C8F804000120606584F8350000BFA6
:10483000002084F8340000BFE06C10B12046E16C29
:10484000884700BF65E500001000024010040240E8
:104850002DE9F041044601F0F9FC804614B901202D
:10486000BDE8F081FE492068884249D0FC491831F2
:104870002068884244D0FA493031206888423FD0CD
:10488000F7494831206888423AD0F54960312068BC
:10489000884235D0F24978312068884230D0F049DA
:1048A0009031206888422BD0ED49A8312068884299
:1048B00026D0EC492068884222D0EA491831206885
:1048C00088421DD0E74930312068884218D0E54938
:1048D00048312068884213D0E2496031206888421C
:1048E0000ED0E04978312068884209D0DD49903106
:1048F0002068884204D0DB49A8312068884201D171
:10490000012000E00020002873D0606A00B100BFE1
:10491000022084F8350000BF002084F8340000BF76
:10492000CF492068884249D0CD4918312068884253
:1049300044D0CB493031206888423FD0C849483103
:10494000206888423AD0C64960312068884235D014
:10495000C34978312068884230D0C14990312068FD
:1049600088422BD0BE49A8312068884226D0BD4954
:104970002068884222D0BB491831206888421DD067
:10498000B84930312068884218D0B649483120688B
:10499000884213D0B3496031206888420ED0B149B3
:1049A00078312068884209D0AE4990312068884229
:1049B00004D0AC49A8312068884206D1206800683C
:1049C00020F001002168086005E02068006820F000
:1049D0000100216808600DE001F038FCA0EB080040
:1049E000052807D920206065032084F835000120C0
:1049F00036E769E02068006800F001000028EBD18C
:104A00002068056898480540D4E9020108432169F7
:104A1000084361690843A1690843E1690843216AC1
:104A200008430543606A042803D1D4E90B01084315
:104A300005436068292802D360682E2817D960686A
:104A40003F2802D36068422811D96068472802D302
:104A5000606848280BD960684F2802D360685228E4
:104A600005D96068742804D36068772801D80120CC
:104A700000E0002008B145F480152068056020683A
:104A8000456925F00705606A0543606A04280DD171
:104A9000A06A0543E06A48B12046FDF74DFB28B106
:104AA00040206065012084F83500D9E62068456122
:104AB0002046FDF71DFA064694F85C0000F01F0141
:104AC0003F208840B0609EE068492068884222D03C
:104AD00066491431206888421DD064492831206815
:104AE000884218D061493C312068884213D05F4920
:104AF0005031206888420ED05C4964312068884279
:104B000009D05A4978312068884204D057498C31FD
:104B10002068884201D1012000E00020E0B3534921
:104B20002068884222D051491431206888421DD023
:104B30004E4928312068884218D04C493C312068C1
:104B4000884213D049495031206888420ED04749E5
:104B500064312068884209D044497831206888420D
:104B600004D042498C312068884201D1012000E004
:104B7000002000B100BF022084F8350000BF0020F3
:104B800084F8340000BF2068056839480540A068F3
:104B9000402802D1102106E02EE0A068802801D133
:104BA000C10100E00021E06841EAD001206941EA4A
:104BB000D001606941EAD001A06941EAD001E06911
:104BC00041EAD001206A41EA1010054320680560DF
:104BD00026492068401A1421B0FBF1F08000E065FE
:104BE0002046FDF785F9074694F85C0000F01F01A8
:104BF00001208840786006E040206065032084F84A
:104C0000350001202CE61649206888427AD01449E4
:104C100018312068884275D01149303120688842A7
:104C200070D00F494831206888426BD00C49603100
:104C30002068884266D00A4978312068884261D06D
:104C400007499031206888425CD00549A831206826
:104C5000884257D003492068884253D0014909E06F
:104C600010000240100402403F8010FE0854025819
:104C70000F00FEFF18312068884243D03749206872
:104C800088423FD035491831206888423AD03349AC
:104C900030312068884235D0304948312068884218
:104CA00030D02E496031206888422BD02B49783192
:104CB0002068884226D02A492068884222D0284984
:104CC0001431206888421DD0254928312068884247
:104CD00018D023493C312068884213D020495031F4
:104CE000206888420ED01E4964312068884209D06D
:104CF0001B4978312068884204D019498C312068DA
:104D0000884201D1012000E0002000B32046FDF7D9
:104D100065F9A068802801D1002060602079216EAB
:104D20000860D4E919104860606860B160680828BC
:104D300009D82046FDF7B4F90020E16E0860D4E9F7
:104D40001C10486003E00020E066206760670020D8
:104D50006065012084F83500002081E540040240B0
:104D6000085402582DE9F04104460D4616461F46E8
:104D70004FF0000814B90120BDE8F08100BF94F89D
:104D80003400012801D10220F6E7012084F8340024
:104D900000BF94F8350001287ED1022084F8350048
:104DA00000206065E4492068884249D0E249183112
:104DB0002068884244D0E0493031206888423FD0A2
:104DC000DD494831206888423AD0DB4960312068AB
:104DD000884235D0D84978312068884230D0D649C9
:104DE0009031206888422BD0D349A831206888426E
:104DF00026D0D2492068884222D0D0491831206874
:104E000088421DD0CD4930312068884218D0CB4926
:104E100048312068884213D0C849603120688842F0
:104E20000ED0C64978312068884209D0C3499031F4
:104E30002068884204D0C149A8312068884206D140
:104E40002068006820F001002168086005E0206803
:104E5000006820F00100216808603B463246294680
:104E60002046FDF7C1F9B449206888424BD0B249C9
:104E700018312068884246D0AF49303120688842D6
:104E800041D0AD494831206888423CD0AA496031C0
:104E90002068884237D000E042E1A7497831206895
:104EA000884230D0A4499031206888422BD0A24952
:104EB000A8312068884226D0A0492068884222D0A4
:104EC0009E491831206888421DD09C4930312068A5
:104ED000884218D0994948312068884213D09749B0
:104EE0006031206888420ED0944978312068884229
:104EF00009D0924990312068884204D08F49A83166
:104F00002068884201D1012000E0002080B12068A3
:104F1000006820F01E0040F0160021680860206C38
:104F2000B0B12068006840F00800216808600FE018
:104F30002068006820F00E0040F00A002168086038
:104F4000206C28B12068006840F0040021680860E7
:104F500079492068884270D07749183120688842A2
:104F60006BD0754930312068884266D0724948312B
:104F70002068884261D070496031206888425CD0E6
:104F80006D4978312068884257D06B49903120684C
:104F9000884252D06849A831206888424DD067497C
:104FA0002068884249D0654918312068884244D039
:104FB00062493031206888423FD0604948312068DA
:104FC00088423AD05D4960312068884235D05B49DB
:104FD00078312068884230D0584990312068884222
:104FE0002BD05649A8312068884226D054492068E1
:104FF000884222D052491431206888421DD050493D
:1050000028312068884218D04D493C3120688842B8
:1050100013D04B495031206888420ED04849643142
:105020002068884209D0464978312068884204D0F7
:1050300043498C312068884201D1012000E00020E2
:1050400090B1206E006800F4803028B1206E0068B6
:1050500040F48070216E0860E06E28B1E06E006858
:1050600040F48070E16E086033492068884249D07E
:10507000314918312068884244D02F4930312068A6
:1050800088423FD02C494831206888423AD02A498A
:1050900060312068884235D02749783120688842BD
:1050A00030D025499031206888422BD02249A83140
:1050B0002068884226D021492068884222D01F4992
:1050C0001831206888421DD01C4930312068884240
:1050D00018D01A4948312068884213D017496031E6
:1050E000206888420ED0154978312068884209D05E
:1050F000124990312068884204D01049A8312068B4
:10510000884206D12068006840F0010021680860EC
:1051100010E02068006840F001002168086009E0A4
:105120004FF40060606500BF002084F8340000BFC9
:105130004FF0010840461FE61000024010040240F4
:105140000854025870B5044601F080F8064625461A
:10515000681C10B104480078054400BF01F076F8DF
:10516000801BA842FAD370BDC400002430B50346AA
:1051700093F89840012C01D0022C3ED11868806D24
:10518000084030B91868C06D40F001001D68E8653E
:105190000EE01868806D0840884206D11868C06D1E
:1051A00040F002001D68E86502E003201D68E86524
:1051B00001F4007030B11868D0F8E00010431D68A9
:1051C000C5F8E00001F4806030B11868D0F8E40060
:1051D00010431D68C5F8E40000BF1868406D0B4D12
:1051E0000D4028431D6868650948006840EA9170D1
:1051F000074D286000BF002030BDD3F89C0040F070
:105200000200C3F89C000120F6E70000FFFFCF3F3B
:1052100014A800402DE9F04104460E461746706878
:1052200000B900E000BF94F89800022832D120684D
:10523000D0F8C00000F07C5040B9D4F89C0040F099
:105240002000C4F89C000120BDE8F0812068D0F85F
:10525000C40000F4001038B1D4F89C0040F4007091
:10526000C4F89C000120EFE72068D0F8C400C0F328
:1052700004452B463A4631462046FDF703FD012002
:10528000A8402168C1F8D0000120A840C4F89400CB
:105290000020D9E7D4F89C0040F00800C4F89C0036
:1052A0000120D1E7704710B5034601B900E000BF07
:1052B00093F89800012824D151B91868D0F8F0006B
:1052C00020F07C5040EA02601C68C4F8F00016E050
:1052D00001290AD11868D0F8A00020F0FE4040EA69
:1052E00002601C68C4F8A00009E01868D0F8B0009B
:1052F00020F0FE4040EA02601C68C4F8B0000020C4
:1053000010BDD3F89C0040F00400C3F89C000120BD
:10531000F6E7F0B5024692F89860012E01D0022E11
:1053200043D1C868072800D100BF086818BBC86807
:10533000072800D000BFC86807280BD1088A4FF0A3
:10534000605747EA0040CF6940EA07208F6940EA8A
:1053500007040AE0087A80070F7B40EAC7600F8ADB
:1053600040EA07404F6940EA0704D76E486807EBF8
:1053700080031C6017E0C868072800D000BF0F7BBF
:10538000086940EA4774C868072801D18D6903E0BD
:105390000F7A486940EA8775176F486807EBC003C2
:1053A0001C601B1D1D600020F0BDD2F89C0040F069
:1053B0000200C2F89C000120F6E770B50446049D87
:1053C00094F8980001280AD1080140EA820040EAD6
:1053D000430028432668C6F88000002070BDD4F83A
:1053E0009C0040F00400C4F89C000120F6E77047E0
:1053F00070B505460C460548854205D104F000709D
:1054000010B1284611F0E0FF70BD0000980900249B
:1054100003461868426C02F007000860C2F30220DD
:10542000486002F018008860C2F34010C860C2F300
:1054300080100861C2F3C0104861C2F3C0208861C7
:10544000C2F30030C861C2F340300862C2F380305A
:105450004862C2F306408862002070472DE9F0439D
:1054600004460D469C46002394F89880B8F1020F3C
:1054700074D1402D38D12068D0F8A00000F4FE008F
:1054800040B9D4F89C0040F02000C4F89C000120F2
:10549000BDE8F0832068D0F8A40000F07F0038B9A0
:1054A000D4F89C0040F48070C4F89C000120EFE721
:1054B0002068D0F8A400C0F3006040B12068D0F8A4
:1054C000A0004FF00109B9EBD07F00D10123206883
:1054D000D0F8A400C0F305200344606C5843D4F80E
:1054E000749009EB80014BE0412D38D12068D0F851
:1054F000B00000F4FE0038B9D4F89C0040F0200061
:10550000C4F89C000120C3E72068D0F8B40000F084
:105510007F0038B9D4F89C0040F48070C4F89C0037
:105520000120B5E72068D0F8B400C0F3006040B1B6
:105530002068D0F8B0004FF00109B9EBD07F00D15E
:1055400001232068D0F8B400C0F305200344E06CC8
:105550005843D4F8789009EB800111E06DE0206D9C
:10556000A84207D8D4F89C0040F02000C4F89C0062
:1055700001208DE7606D6843D4F87C9009EB8001D1
:10558000086800F080405060506820B90868C0F397
:105590008A40106003E0086820F0604010600868EE
:1055A00000F000509060086800F000401061091D94
:1055B000088880B2D0610868C0F30340D0600868F2
:1055C00000F480105061086800F4001090610868D1
:1055D000C0F3066010620868C00F5062091D0F46D4
:1055E000002603E0B85D0CF80600761CDFF85C903E
:1055F000D06819F80000B042F4D8402D03D12068DB
:10560000C0F8A83017E0412D03D12068C0F8B830A9
:1056100011E0202D06D20120A840D4F80090C9F84E
:10562000980008E005F01F09012000FA09F0D4F8FD
:105630000090C9F89C0000202AE7D4F89C0040F0B4
:105640000800C4F89C00012022E7000050910108E6
:10565000704700002DE9F04F8DB00446EF48006818
:105660008707EE48001D006807EA80772068006D14
:1056700000F470482068406D00EA08082068006D5A
:1056800000F00F092068406D00EA09092068006DEC
:1056900000F0F00A2068406D00EA0A0A2068006DF8
:1056A00000F0715B2068406D00EA0B0B2068006D14
:1056B00000F060700C902068406D0C9908400C90D0
:1056C0002068456D2068066DC5F3002070B1C6F3F3
:1056D000002058B100BF4FF4807021680865002099
:1056E000CE49086000BF2046FFF7B2FFC5F3802017
:1056F000C8B1C6F38020B0B12068D0F8DC000A90B1
:105700002068D0F8E4000A9908400A9000BF4FF4DE
:105710008060216808650020C049086000BF2046FD
:105720000A9900F090FC67B100BFBD48384021687D
:105730000865B80FB949086000BF39462046FFF731
:10574000B1FDB8F1000F0ED000BFB54808EA000067
:10575000216808654FEA9870B049086000BF41466B
:10576000204600F072FCB9F1000F0ED000BFAC482B
:1057700009EA0000216808654FEA9970A7490860A6
:1057800000BF4946204600F0DFFBBAF1000F0ED003
:1057900000BFA3480AEA0000216808654FEA9A7032
:1057A0009E49086000BF5146204600F02BFCC5F31F
:1057B000C02070B1C6F3C02058B100BF4FF40060E4
:1057C0002168086500209549086000BF204600F068
:1057D0003DFCC5F34020C8B1C6F34020B0B12068FD
:1057E000D0F8D8000B902068D0F8E0000B99084062
:1057F0000B9000BF4FF400702168086500208749B6
:10580000086000BF20460B9900F01EFCC5F3C040A5
:1058100070B1C6F3C04058B100BF4FF400202168FA
:10582000086500207D49086000BF204600F08AFB23
:10583000C5F3004070B1C6F3004058B100BF4FF44B
:1058400080302168086500207449086000BF204648
:1058500000F0F8FBC5F3804070B1C6F3804058B14A
:1058600000BF4FF480202168086500206B49086064
:1058700000BF204600F0E5FBC5F3404088B1C6F309
:10588000404070B100BF4FF400302168086500202F
:105890006249086000BFD4F89C0040F08000C4F862
:1058A0009C000C9870B100BF5D490C9808402168BD
:1058B00008650C98800F5949086000BF20460C9974
:1058C000FFF796FDBBF1000F10D000BF54480BEA64
:1058D0000000216808654FEA9B705049086000BFCE
:1058E000D4F89C0040EA0B00C4F89C004D492068A5
:1058F00088427DD16068806800F00300002877D07E
:105900006068006A00F00F0009906068406A0999B9
:10591000084009906068006A00F0300008906068F4
:10592000406A0899084008906068006A00F4C070F6
:1059300007906068406A0799084007906068006AAD
:1059400000F4FC4006906068406A069908400690A2
:105950006068006A00F4F02005906068406A05996C
:10596000084005906068406A02906068006A019093
:10597000099830B10998616808622046099900F0D9
:105980005DFB089830B10898616808622046089964
:1059900000F056FB0298C0F38010A0B10198C0F34C
:1059A000801080B16068C06B000C04906068C06BB0
:1059B00000F03F0003904020616808622046DDE966
:1059C000032100F03CFB079830B10798616808623A
:1059D0002046079900F031FB069840B106986168AF
:1059E0000862D4F89C0006990843C4F89C0000E0C3
:1059F0000AE0059840B1059861680862D4F89C00F7
:105A000005990843C4F89C00D4F89C0010B12046C6
:105A1000FFF7EDFC0DB0BDE8F08F000010A80040CE
:105A2000FFFFCF3F00A0004070B594B004464C2269
:105A3000B34901A8FAF754FE14B9012014B070BD9F
:105A4000B0492068884203D1206800F5807060600A
:105A5000A068B0F5407F00D100BF206C00B100BF4E
:105A6000A06C00B100BF206D00B100BF206E00B17E
:105A700000BFD4E91710084400B100BF94F89800A3
:105A800028B9002084F89900204600F03DF92068EC
:105A9000806920F010002168886100F0D7FB05467E
:105AA0000EE000F0D3FB401B0A2809D99834606847
:105AB00040F001006060032004F898090120BDE770
:105AC0002068806900F008000828EAD02068806912
:105AD00040F001002168886100F0B8FB05460EE047
